{
  "contractName": "TrashTag",
  "abi": [
    {
      "inputs": [],
      "stateMutability": "nonpayable",
      "type": "constructor"
    },
    {
      "anonymous": false,
      "inputs": [
        {
          "indexed": true,
          "internalType": "address",
          "name": "account",
          "type": "address"
        },
        {
          "indexed": true,
          "internalType": "address",
          "name": "operator",
          "type": "address"
        },
        {
          "indexed": false,
          "internalType": "bool",
          "name": "approved",
          "type": "bool"
        }
      ],
      "name": "ApprovalForAll",
      "type": "event"
    },
    {
      "anonymous": false,
      "inputs": [
        {
          "indexed": true,
          "internalType": "address",
          "name": "operator",
          "type": "address"
        },
        {
          "indexed": true,
          "internalType": "address",
          "name": "from",
          "type": "address"
        },
        {
          "indexed": true,
          "internalType": "address",
          "name": "to",
          "type": "address"
        },
        {
          "indexed": false,
          "internalType": "uint256[]",
          "name": "ids",
          "type": "uint256[]"
        },
        {
          "indexed": false,
          "internalType": "uint256[]",
          "name": "values",
          "type": "uint256[]"
        }
      ],
      "name": "TransferBatch",
      "type": "event"
    },
    {
      "anonymous": false,
      "inputs": [
        {
          "indexed": true,
          "internalType": "address",
          "name": "operator",
          "type": "address"
        },
        {
          "indexed": true,
          "internalType": "address",
          "name": "from",
          "type": "address"
        },
        {
          "indexed": true,
          "internalType": "address",
          "name": "to",
          "type": "address"
        },
        {
          "indexed": false,
          "internalType": "uint256",
          "name": "id",
          "type": "uint256"
        },
        {
          "indexed": false,
          "internalType": "uint256",
          "name": "value",
          "type": "uint256"
        }
      ],
      "name": "TransferSingle",
      "type": "event"
    },
    {
      "anonymous": false,
      "inputs": [
        {
          "indexed": false,
          "internalType": "string",
          "name": "value",
          "type": "string"
        },
        {
          "indexed": true,
          "internalType": "uint256",
          "name": "id",
          "type": "uint256"
        }
      ],
      "name": "URI",
      "type": "event"
    },
    {
      "inputs": [
        {
          "internalType": "address",
          "name": "account",
          "type": "address"
        },
        {
          "internalType": "uint256",
          "name": "id",
          "type": "uint256"
        }
      ],
      "name": "balanceOf",
      "outputs": [
        {
          "internalType": "uint256",
          "name": "",
          "type": "uint256"
        }
      ],
      "stateMutability": "view",
      "type": "function",
      "constant": true
    },
    {
      "inputs": [
        {
          "internalType": "address[]",
          "name": "accounts",
          "type": "address[]"
        },
        {
          "internalType": "uint256[]",
          "name": "ids",
          "type": "uint256[]"
        }
      ],
      "name": "balanceOfBatch",
      "outputs": [
        {
          "internalType": "uint256[]",
          "name": "",
          "type": "uint256[]"
        }
      ],
      "stateMutability": "view",
      "type": "function",
      "constant": true
    },
    {
      "inputs": [
        {
          "internalType": "address",
          "name": "account",
          "type": "address"
        },
        {
          "internalType": "address",
          "name": "operator",
          "type": "address"
        }
      ],
      "name": "isApprovedForAll",
      "outputs": [
        {
          "internalType": "bool",
          "name": "",
          "type": "bool"
        }
      ],
      "stateMutability": "view",
      "type": "function",
      "constant": true
    },
    {
      "inputs": [
        {
          "internalType": "address",
          "name": "from",
          "type": "address"
        },
        {
          "internalType": "address",
          "name": "to",
          "type": "address"
        },
        {
          "internalType": "uint256[]",
          "name": "ids",
          "type": "uint256[]"
        },
        {
          "internalType": "uint256[]",
          "name": "amounts",
          "type": "uint256[]"
        },
        {
          "internalType": "bytes",
          "name": "data",
          "type": "bytes"
        }
      ],
      "name": "safeBatchTransferFrom",
      "outputs": [],
      "stateMutability": "nonpayable",
      "type": "function"
    },
    {
      "inputs": [
        {
          "internalType": "address",
          "name": "from",
          "type": "address"
        },
        {
          "internalType": "address",
          "name": "to",
          "type": "address"
        },
        {
          "internalType": "uint256",
          "name": "id",
          "type": "uint256"
        },
        {
          "internalType": "uint256",
          "name": "amount",
          "type": "uint256"
        },
        {
          "internalType": "bytes",
          "name": "data",
          "type": "bytes"
        }
      ],
      "name": "safeTransferFrom",
      "outputs": [],
      "stateMutability": "nonpayable",
      "type": "function"
    },
    {
      "inputs": [
        {
          "internalType": "address",
          "name": "operator",
          "type": "address"
        },
        {
          "internalType": "bool",
          "name": "approved",
          "type": "bool"
        }
      ],
      "name": "setApprovalForAll",
      "outputs": [],
      "stateMutability": "nonpayable",
      "type": "function"
    },
    {
      "inputs": [
        {
          "internalType": "bytes4",
          "name": "interfaceId",
          "type": "bytes4"
        }
      ],
      "name": "supportsInterface",
      "outputs": [
        {
          "internalType": "bool",
          "name": "",
          "type": "bool"
        }
      ],
      "stateMutability": "view",
      "type": "function",
      "constant": true
    },
    {
      "inputs": [
        {
          "internalType": "uint256",
          "name": "",
          "type": "uint256"
        }
      ],
      "name": "uri",
      "outputs": [
        {
          "internalType": "string",
          "name": "",
          "type": "string"
        }
      ],
      "stateMutability": "view",
      "type": "function",
      "constant": true
    },
    {
      "inputs": [
        {
          "internalType": "address",
          "name": "_to",
          "type": "address"
        }
      ],
      "name": "approve",
      "outputs": [],
      "stateMutability": "nonpayable",
      "type": "function"
    },
    {
      "inputs": [
        {
          "internalType": "string",
          "name": "_uri",
          "type": "string"
        }
      ],
      "name": "mint",
      "outputs": [],
      "stateMutability": "nonpayable",
      "type": "function"
    },
    {
      "inputs": [
        {
          "internalType": "address",
          "name": "_to",
          "type": "address"
        },
        {
          "internalType": "uint256",
          "name": "_id",
          "type": "uint256"
        }
      ],
      "name": "SendToken",
      "outputs": [],
      "stateMutability": "nonpayable",
      "type": "function"
    },
    {
      "inputs": [
        {
          "internalType": "address",
          "name": "_to",
          "type": "address"
        },
        {
          "internalType": "uint256",
          "name": "amount",
          "type": "uint256"
        }
      ],
      "name": "sendCoin",
      "outputs": [],
      "stateMutability": "nonpayable",
      "type": "function"
    },
    {
      "inputs": [
        {
          "internalType": "address",
          "name": "_receiver",
          "type": "address"
        }
      ],
      "name": "getBalanceCoin",
      "outputs": [
        {
          "internalType": "uint256",
          "name": "",
          "type": "uint256"
        }
      ],
      "stateMutability": "view",
      "type": "function",
      "constant": true
    },
    {
      "inputs": [
        {
          "internalType": "address",
          "name": "_receiver",
          "type": "address"
        }
      ],
      "name": "getAmountNFT",
      "outputs": [
        {
          "internalType": "uint256",
          "name": "",
          "type": "uint256"
        }
      ],
      "stateMutability": "view",
      "type": "function",
      "constant": true
    },
    {
      "inputs": [
        {
          "internalType": "uint256",
          "name": "_tokenId",
          "type": "uint256"
        }
      ],
      "name": "getURI",
      "outputs": [
        {
          "internalType": "string",
          "name": "",
          "type": "string"
        }
      ],
      "stateMutability": "view",
      "type": "function",
      "constant": true
    },
    {
      "inputs": [],
      "name": "getAdmin",
      "outputs": [
        {
          "internalType": "address",
          "name": "",
          "type": "address"
        }
      ],
      "stateMutability": "view",
      "type": "function",
      "constant": true
    }
  ],
  "bytecode": "0x60806040523480156200001157600080fd5b506040518060200160405280600081525062000033816200008d60201b60201c565b5033600360006101000a81548173ffffffffffffffffffffffffffffffffffffffff021916908373ffffffffffffffffffffffffffffffffffffffff160217905550620000876064620000a960201b60201c565b62000223565b8060029080519060200190620000a59291906200010e565b5050565b600360009054906101000a900473ffffffffffffffffffffffffffffffffffffffff1673ffffffffffffffffffffffffffffffffffffffff163373ffffffffffffffffffffffffffffffffffffffff16146200010457600080fd5b8060048190555050565b8280546200011c90620001be565b90600052602060002090601f0160209004810192826200014057600085556200018c565b82601f106200015b57805160ff19168380011785556200018c565b828001600101855582156200018c579182015b828111156200018b5782518255916020019190600101906200016e565b5b5090506200019b91906200019f565b5090565b5b80821115620001ba576000816000905550600101620001a0565b5090565b60006002820490506001821680620001d757607f821691505b60208210811415620001ee57620001ed620001f4565b5b50919050565b7f4e487b7100000000000000000000000000000000000000000000000000000000600052602260045260246000fd5b61391a80620002336000396000f3fe608060405234801561001057600080fd5b50600436106100ff5760003560e01c806390b98a1111610097578063d85d3d2711610066578063d85d3d27146102e2578063daea85c5146102fe578063e985e9c51461031a578063f242432a1461034a576100ff565b806390b98a111461025e578063916800021461027a578063a22cb46514610296578063d7a3dff5146102b2576100ff565b80632db2f8cc116100d35780632db2f8cc146101c45780632eb2c2d6146101f45780634e1273f4146102105780636e9960c314610240576100ff565b8062fdd58e1461010457806301ffc9a7146101345780630e89341c146101645780631aa347dc14610194575b600080fd5b61011e600480360381019061011991906129dd565b610366565b60405161012b91906133fe565b60405180910390f35b61014e60048036038101906101499190612a85565b61042f565b60405161015b9190613241565b60405180910390f35b61017e60048036038101906101799190612b1c565b610511565b60405161018b919061325c565b60405180910390f35b6101ae60048036038101906101a99190612b1c565b6105a5565b6040516101bb919061325c565b60405180910390f35b6101de60048036038101906101d991906127ee565b6106cb565b6040516101eb91906133fe565b60405180910390f35b61020e60048036038101906102099190612853565b6106df565b005b61022a60048036038101906102259190612a19565b610ad5565b60405161023791906131e8565b60405180910390f35b610248610c86565b604051610255919061310b565b60405180910390f35b610278600480360381019061027391906129dd565b610cb0565b005b610294600480360381019061028f91906129dd565b610f43565b005b6102b060048036038101906102ab91906129a1565b611238565b005b6102cc60048036038101906102c791906127ee565b6113b9565b6040516102d991906133fe565b60405180910390f35b6102fc60048036038101906102f79190612ad7565b611405565b005b610318600480360381019061031391906127ee565b611600565b005b610334600480360381019061032f9190612817565b6116b8565b6040516103419190613241565b60405180910390f35b610364600480360381019061035f9190612912565b61174c565b005b60008073ffffffffffffffffffffffffffffffffffffffff168373ffffffffffffffffffffffffffffffffffffffff1614156103d7576040517f08c379a00000000000000000000000000000000000000000000000000000000081526004016103ce906132be565b60405180910390fd5b60008083815260200190815260200160002060008473ffffffffffffffffffffffffffffffffffffffff1673ffffffffffffffffffffffffffffffffffffffff16815260200190815260200160002054905092915050565b60007fd9b67a26000000000000000000000000000000000000000000000000000000007bffffffffffffffffffffffffffffffffffffffffffffffffffffffff1916827bffffffffffffffffffffffffffffffffffffffffffffffffffffffff191614806104fa57507f0e89341c000000000000000000000000000000000000000000000000000000007bffffffffffffffffffffffffffffffffffffffffffffffffffffffff1916827bffffffffffffffffffffffffffffffffffffffffffffffffffffffff1916145b8061050a575061050982611a64565b5b9050919050565b606060028054610520906136ac565b80601f016020809104026020016040519081016040528092919081815260200182805461054c906136ac565b80156105995780601f1061056e57610100808354040283529160200191610599565b820191906000526020600020905b81548152906001019060200180831161057c57829003601f168201915b50505050509050919050565b60606000600560003373ffffffffffffffffffffffffffffffffffffffff1673ffffffffffffffffffffffffffffffffffffffff16815260200190815260200160002060008481526020019081526020016000208054610604906136ac565b80601f0160208091040260200160405190810160405280929190818152602001828054610630906136ac565b801561067d5780601f106106525761010080835404028352916020019161067d565b820191906000526020600020905b81548152906001019060200180831161066057829003601f168201915b505050505090506106c36040518060400160405280600781526020017f697066733a2f2f0000000000000000000000000000000000000000000000000081525082611ace565b915050919050565b60006106d8826000610366565b9050919050565b8151835114610723576040517f08c379a000000000000000000000000000000000000000000000000000000000815260040161071a906133be565b60405180910390fd5b600073ffffffffffffffffffffffffffffffffffffffff168473ffffffffffffffffffffffffffffffffffffffff161415610793576040517f08c379a000000000000000000000000000000000000000000000000000000000815260040161078a9061331e565b60405180910390fd5b61079b611e5f565b73ffffffffffffffffffffffffffffffffffffffff168573ffffffffffffffffffffffffffffffffffffffff1614806107e157506107e0856107db611e5f565b6116b8565b5b610820576040517f08c379a00000000000000000000000000000000000000000000000000000000081526004016108179061333e565b60405180910390fd5b600061082a611e5f565b905061083a818787878787611e67565b60005b8451811015610a40576000858281518110610881577f4e487b7100000000000000000000000000000000000000000000000000000000600052603260045260246000fd5b6020026020010151905060008583815181106108c6577f4e487b7100000000000000000000000000000000000000000000000000000000600052603260045260246000fd5b60200260200101519050600080600084815260200190815260200160002060008b73ffffffffffffffffffffffffffffffffffffffff1673ffffffffffffffffffffffffffffffffffffffff16815260200190815260200160002054905081811015610967576040517f08c379a000000000000000000000000000000000000000000000000000000000815260040161095e9061335e565b60405180910390fd5b818161097391906135c2565b60008085815260200190815260200160002060008c73ffffffffffffffffffffffffffffffffffffffff1673ffffffffffffffffffffffffffffffffffffffff168152602001908152602001600020819055508160008085815260200190815260200160002060008b73ffffffffffffffffffffffffffffffffffffffff1673ffffffffffffffffffffffffffffffffffffffff1681526020019081526020016000206000828254610a25919061356c565b9250508190555050505080610a39906136de565b905061083d565b508473ffffffffffffffffffffffffffffffffffffffff168673ffffffffffffffffffffffffffffffffffffffff168273ffffffffffffffffffffffffffffffffffffffff167f4a39dc06d4c0dbc64b70af90fd698a233a518aa5d07e595d983b8c0526c8f7fb8787604051610ab792919061320a565b60405180910390a4610acd818787878787611e6f565b505050505050565b60608151835114610b1b576040517f08c379a0000000000000000000000000000000000000000000000000000000008152600401610b129061339e565b60405180910390fd5b6000835167ffffffffffffffff811115610b5e577f4e487b7100000000000000000000000000000000000000000000000000000000600052604160045260246000fd5b604051908082528060200260200182016040528015610b8c5781602001602082028036833780820191505090505b50905060005b8451811015610c7b57610c25858281518110610bd7577f4e487b7100000000000000000000000000000000000000000000000000000000600052603260045260246000fd5b6020026020010151858381518110610c18577f4e487b7100000000000000000000000000000000000000000000000000000000600052603260045260246000fd5b6020026020010151610366565b828281518110610c5e577f4e487b7100000000000000000000000000000000000000000000000000000000600052603260045260246000fd5b60200260200101818152505080610c74906136de565b9050610b92565b508091505092915050565b6000600360009054906101000a900473ffffffffffffffffffffffffffffffffffffffff16905090565b80610cbc336000610366565b1115610cc757600080fd5b6000600660008473ffffffffffffffffffffffffffffffffffffffff1673ffffffffffffffffffffffffffffffffffffffff1681526020019081526020016000206000016000815480929190610d1c906136de565b919050559050610d2d836001611238565b610d4a33848360016040518060200160405280600081525061174c565b610d55836000611238565b6000600560003373ffffffffffffffffffffffffffffffffffffffff1673ffffffffffffffffffffffffffffffffffffffff16815260200190815260200160002060008381526020019081526020016000208054610db2906136ac565b80601f0160208091040260200160405190810160405280929190818152602001828054610dde906136ac565b8015610e2b5780601f10610e0057610100808354040283529160200191610e2b565b820191906000526020600020905b815481529060010190602001808311610e0e57829003601f168201915b5050505050905080600560008673ffffffffffffffffffffffffffffffffffffffff1673ffffffffffffffffffffffffffffffffffffffff16815260200190815260200160002060008481526020019081526020016000209080519060200190610e9692919061247e565b506040518060400160405280601181526020017f6e6f7420796f75727320616e796d6f7265000000000000000000000000000000815250600560003373ffffffffffffffffffffffffffffffffffffffff1673ffffffffffffffffffffffffffffffffffffffff1681526020019081526020016000206000600185610f1b91906135c2565b81526020019081526020016000209080519060200190610f3c92919061247e565b5050505050565b6000600660003373ffffffffffffffffffffffffffffffffffffffff1673ffffffffffffffffffffffffffffffffffffffff1681526020019081526020016000206000015411610fc8576040517f08c379a0000000000000000000000000000000000000000000000000000000008152600401610fbf906132de565b60405180910390fd5b610fd3826001611238565b610ff033838360016040518060200160405280600081525061174c565b610ffb826000611238565b6000600560003373ffffffffffffffffffffffffffffffffffffffff1673ffffffffffffffffffffffffffffffffffffffff16815260200190815260200160002060008381526020019081526020016000208054611058906136ac565b80601f0160208091040260200160405190810160405280929190818152602001828054611084906136ac565b80156110d15780601f106110a6576101008083540402835291602001916110d1565b820191906000526020600020905b8154815290600101906020018083116110b457829003601f168201915b505050505090506000600660008573ffffffffffffffffffffffffffffffffffffffff1673ffffffffffffffffffffffffffffffffffffffff168152602001908152602001600020600001600081548092919061112d906136de565b91905055905081600560008673ffffffffffffffffffffffffffffffffffffffff1673ffffffffffffffffffffffffffffffffffffffff1681526020019081526020016000206000838152602001908152602001600020908051906020019061119792919061247e565b506040518060400160405280601181526020017f6e6f7420796f75727320616e796d6f7265000000000000000000000000000000815250600560003373ffffffffffffffffffffffffffffffffffffffff1673ffffffffffffffffffffffffffffffffffffffff1681526020019081526020016000206000858152602001908152602001600020908051906020019061123192919061247e565b5050505050565b8173ffffffffffffffffffffffffffffffffffffffff16611257611e5f565b73ffffffffffffffffffffffffffffffffffffffff1614156112ae576040517f08c379a00000000000000000000000000000000000000000000000000000000081526004016112a59061337e565b60405180910390fd5b80600160006112bb611e5f565b73ffffffffffffffffffffffffffffffffffffffff1673ffffffffffffffffffffffffffffffffffffffff16815260200190815260200160002060008473ffffffffffffffffffffffffffffffffffffffff1673ffffffffffffffffffffffffffffffffffffffff16815260200190815260200160002060006101000a81548160ff0219169083151502179055508173ffffffffffffffffffffffffffffffffffffffff16611368611e5f565b73ffffffffffffffffffffffffffffffffffffffff167f17307eab39ab6107e8899845ad3d59bd9653f200f220920489ca2b5937696c31836040516113ad9190613241565b60405180910390a35050565b6000600660008373ffffffffffffffffffffffffffffffffffffffff1673ffffffffffffffffffffffffffffffffffffffff168152602001908152602001600020600001549050919050565b3360011515600660008373ffffffffffffffffffffffffffffffffffffffff1673ffffffffffffffffffffffffffffffffffffffff16815260200190815260200160002060010160009054906101000a900460ff1615151461146657600080fd5b600660003373ffffffffffffffffffffffffffffffffffffffff1673ffffffffffffffffffffffffffffffffffffffff16815260200190815260200160002060000160008154809291906114b9906136de565b91905055506000600660003373ffffffffffffffffffffffffffffffffffffffff1673ffffffffffffffffffffffffffffffffffffffff1681526020019081526020016000206000015490508383600560003373ffffffffffffffffffffffffffffffffffffffff1673ffffffffffffffffffffffffffffffffffffffff16815260200190815260200160002060008481526020019081526020016000209190611564929190612504565b50611581338260016040518060200160405280600081525061203f565b61159f3360006004546040518060200160405280600081525061203f565b6000600660003373ffffffffffffffffffffffffffffffffffffffff1673ffffffffffffffffffffffffffffffffffffffff16815260200190815260200160002060010160006101000a81548160ff02191690831515021790555050505050565b600360009054906101000a900473ffffffffffffffffffffffffffffffffffffffff1673ffffffffffffffffffffffffffffffffffffffff163373ffffffffffffffffffffffffffffffffffffffff161461165a57600080fd5b6001600660008373ffffffffffffffffffffffffffffffffffffffff1673ffffffffffffffffffffffffffffffffffffffff16815260200190815260200160002060010160006101000a81548160ff02191690831515021790555050565b6000600160008473ffffffffffffffffffffffffffffffffffffffff1673ffffffffffffffffffffffffffffffffffffffff16815260200190815260200160002060008373ffffffffffffffffffffffffffffffffffffffff1673ffffffffffffffffffffffffffffffffffffffff16815260200190815260200160002060009054906101000a900460ff16905092915050565b600073ffffffffffffffffffffffffffffffffffffffff168473ffffffffffffffffffffffffffffffffffffffff1614156117bc576040517f08c379a00000000000000000000000000000000000000000000000000000000081526004016117b39061331e565b60405180910390fd5b6117c4611e5f565b73ffffffffffffffffffffffffffffffffffffffff168573ffffffffffffffffffffffffffffffffffffffff16148061180a575061180985611804611e5f565b6116b8565b5b611849576040517f08c379a0000000000000000000000000000000000000000000000000000000008152600401611840906132fe565b60405180910390fd5b6000611853611e5f565b9050611873818787611864886121d5565b61186d886121d5565b87611e67565b600080600086815260200190815260200160002060008873ffffffffffffffffffffffffffffffffffffffff1673ffffffffffffffffffffffffffffffffffffffff1681526020019081526020016000205490508381101561190a576040517f08c379a00000000000000000000000000000000000000000000000000000000081526004016119019061335e565b60405180910390fd5b838161191691906135c2565b60008087815260200190815260200160002060008973ffffffffffffffffffffffffffffffffffffffff1673ffffffffffffffffffffffffffffffffffffffff168152602001908152602001600020819055508360008087815260200190815260200160002060008873ffffffffffffffffffffffffffffffffffffffff1673ffffffffffffffffffffffffffffffffffffffff16815260200190815260200160002060008282546119c8919061356c565b925050819055508573ffffffffffffffffffffffffffffffffffffffff168773ffffffffffffffffffffffffffffffffffffffff168373ffffffffffffffffffffffffffffffffffffffff167fc3d58168c5ae7397731d063d5bbf3d657854427343f4c083240f7aacaa2d0f628888604051611a45929190613419565b60405180910390a4611a5b82888888888861229b565b50505050505050565b60007f01ffc9a7000000000000000000000000000000000000000000000000000000007bffffffffffffffffffffffffffffffffffffffffffffffffffffffff1916827bffffffffffffffffffffffffffffffffffffffffffffffffffffffff1916149050919050565b606060008084905060008490506000815160028451611aed919061356c565b611af7919061356c565b67ffffffffffffffff811115611b36577f4e487b7100000000000000000000000000000000000000000000000000000000600052604160045260246000fd5b6040519080825280601f01601f191660200182016040528015611b685781602001600182028036833780820191505090505b5090506060905060008190506000805b8551811015611c4c57858181518110611bba577f4e487b7100000000000000000000000000000000000000000000000000000000600052603260045260246000fd5b602001015160f81c60f81b838380611bd1906136de565b945081518110611c0a577f4e487b7100000000000000000000000000000000000000000000000000000000600052603260045260246000fd5b60200101907effffffffffffffffffffffffffffffffffffffffffffffffffffffffffffff1916908160001a9053508080611c44906136de565b915050611b78565b507f2c00000000000000000000000000000000000000000000000000000000000000828280611c7a906136de565b935081518110611cb3577f4e487b7100000000000000000000000000000000000000000000000000000000600052603260045260246000fd5b60200101907effffffffffffffffffffffffffffffffffffffffffffffffffffffffffffff1916908160001a9053507f2000000000000000000000000000000000000000000000000000000000000000828280611d0f906136de565b935081518110611d48577f4e487b7100000000000000000000000000000000000000000000000000000000600052603260045260246000fd5b60200101907effffffffffffffffffffffffffffffffffffffffffffffffffffffffffffff1916908160001a905350600095505b8351861015611e5057838681518110611dbe577f4e487b7100000000000000000000000000000000000000000000000000000000600052603260045260246000fd5b602001015160f81c60f81b828280611dd5906136de565b935081518110611e0e577f4e487b7100000000000000000000000000000000000000000000000000000000600052603260045260246000fd5b60200101907effffffffffffffffffffffffffffffffffffffffffffffffffffffffffffff1916908160001a9053508580611e48906136de565b965050611d7c565b81965050505050505092915050565b600033905090565b505050505050565b611e8e8473ffffffffffffffffffffffffffffffffffffffff1661246b565b15612037578373ffffffffffffffffffffffffffffffffffffffff1663bc197c8187878686866040518663ffffffff1660e01b8152600401611ed4959493929190613126565b602060405180830381600087803b158015611eee57600080fd5b505af1925050508015611f1f57506040513d601f19601f82011682018060405250810190611f1c9190612aae565b60015b611fae57611f2b6137d2565b80611f365750611f73565b806040517f08c379a0000000000000000000000000000000000000000000000000000000008152600401611f6a919061325c565b60405180910390fd5b6040517f08c379a0000000000000000000000000000000000000000000000000000000008152600401611fa59061327e565b60405180910390fd5b63bc197c8160e01b7bffffffffffffffffffffffffffffffffffffffffffffffffffffffff1916817bffffffffffffffffffffffffffffffffffffffffffffffffffffffff191614612035576040517f08c379a000000000000000000000000000000000000000000000000000000000815260040161202c9061329e565b60405180910390fd5b505b505050505050565b600073ffffffffffffffffffffffffffffffffffffffff168473ffffffffffffffffffffffffffffffffffffffff1614156120af576040517f08c379a00000000000000000000000000000000000000000000000000000000081526004016120a6906133de565b60405180910390fd5b60006120b9611e5f565b90506120da816000876120cb886121d5565b6120d4886121d5565b87611e67565b8260008086815260200190815260200160002060008773ffffffffffffffffffffffffffffffffffffffff1673ffffffffffffffffffffffffffffffffffffffff1681526020019081526020016000206000828254612139919061356c565b925050819055508473ffffffffffffffffffffffffffffffffffffffff16600073ffffffffffffffffffffffffffffffffffffffff168273ffffffffffffffffffffffffffffffffffffffff167fc3d58168c5ae7397731d063d5bbf3d657854427343f4c083240f7aacaa2d0f6287876040516121b7929190613419565b60405180910390a46121ce8160008787878761229b565b5050505050565b60606000600167ffffffffffffffff81111561221a577f4e487b7100000000000000000000000000000000000000000000000000000000600052604160045260246000fd5b6040519080825280602002602001820160405280156122485781602001602082028036833780820191505090505b5090508281600081518110612286577f4e487b7100000000000000000000000000000000000000000000000000000000600052603260045260246000fd5b60200260200101818152505080915050919050565b6122ba8473ffffffffffffffffffffffffffffffffffffffff1661246b565b15612463578373ffffffffffffffffffffffffffffffffffffffff1663f23a6e6187878686866040518663ffffffff1660e01b815260040161230095949392919061318e565b602060405180830381600087803b15801561231a57600080fd5b505af192505050801561234b57506040513d601f19601f820116820180604052508101906123489190612aae565b60015b6123da576123576137d2565b80612362575061239f565b806040517f08c379a0000000000000000000000000000000000000000000000000000000008152600401612396919061325c565b60405180910390fd5b6040517f08c379a00000000000000000000000000000000000000000000000000000000081526004016123d19061327e565b60405180910390fd5b63f23a6e6160e01b7bffffffffffffffffffffffffffffffffffffffffffffffffffffffff1916817bffffffffffffffffffffffffffffffffffffffffffffffffffffffff191614612461576040517f08c379a00000000000000000000000000000000000000000000000000000000081526004016124589061329e565b60405180910390fd5b505b505050505050565b600080823b905060008111915050919050565b82805461248a906136ac565b90600052602060002090601f0160209004810192826124ac57600085556124f3565b82601f106124c557805160ff19168380011785556124f3565b828001600101855582156124f3579182015b828111156124f25782518255916020019190600101906124d7565b5b509050612500919061258a565b5090565b828054612510906136ac565b90600052602060002090601f0160209004810192826125325760008555612579565b82601f1061254b57803560ff1916838001178555612579565b82800160010185558215612579579182015b8281111561257857823582559160200191906001019061255d565b5b509050612586919061258a565b5090565b5b808211156125a357600081600090555060010161258b565b5090565b60006125ba6125b584613473565b613442565b905080838252602082019050828560208602820111156125d957600080fd5b60005b8581101561260957816125ef88826126bd565b8452602084019350602083019250506001810190506125dc565b5050509392505050565b60006126266126218461349f565b613442565b9050808382526020820190508285602086028201111561264557600080fd5b60005b85811015612675578161265b88826127d9565b845260208401935060208301925050600181019050612648565b5050509392505050565b600061269261268d846134cb565b613442565b9050828152602081018484840111156126aa57600080fd5b6126b584828561366a565b509392505050565b6000813590506126cc81613888565b92915050565b600082601f8301126126e357600080fd5b81356126f38482602086016125a7565b91505092915050565b600082601f83011261270d57600080fd5b813561271d848260208601612613565b91505092915050565b6000813590506127358161389f565b92915050565b60008135905061274a816138b6565b92915050565b60008151905061275f816138b6565b92915050565b600082601f83011261277657600080fd5b813561278684826020860161267f565b91505092915050565b60008083601f8401126127a157600080fd5b8235905067ffffffffffffffff8111156127ba57600080fd5b6020830191508360018202830111156127d257600080fd5b9250929050565b6000813590506127e8816138cd565b92915050565b60006020828403121561280057600080fd5b600061280e848285016126bd565b91505092915050565b6000806040838503121561282a57600080fd5b6000612838858286016126bd565b9250506020612849858286016126bd565b9150509250929050565b600080600080600060a0868803121561286b57600080fd5b6000612879888289016126bd565b955050602061288a888289016126bd565b945050604086013567ffffffffffffffff8111156128a757600080fd5b6128b3888289016126fc565b935050606086013567ffffffffffffffff8111156128d057600080fd5b6128dc888289016126fc565b925050608086013567ffffffffffffffff8111156128f957600080fd5b61290588828901612765565b9150509295509295909350565b600080600080600060a0868803121561292a57600080fd5b6000612938888289016126bd565b9550506020612949888289016126bd565b945050604061295a888289016127d9565b935050606061296b888289016127d9565b925050608086013567ffffffffffffffff81111561298857600080fd5b61299488828901612765565b9150509295509295909350565b600080604083850312156129b457600080fd5b60006129c2858286016126bd565b92505060206129d385828601612726565b9150509250929050565b600080604083850312156129f057600080fd5b60006129fe858286016126bd565b9250506020612a0f858286016127d9565b9150509250929050565b60008060408385031215612a2c57600080fd5b600083013567ffffffffffffffff811115612a4657600080fd5b612a52858286016126d2565b925050602083013567ffffffffffffffff811115612a6f57600080fd5b612a7b858286016126fc565b9150509250929050565b600060208284031215612a9757600080fd5b6000612aa58482850161273b565b91505092915050565b600060208284031215612ac057600080fd5b6000612ace84828501612750565b91505092915050565b60008060208385031215612aea57600080fd5b600083013567ffffffffffffffff811115612b0457600080fd5b612b108582860161278f565b92509250509250929050565b600060208284031215612b2e57600080fd5b6000612b3c848285016127d9565b91505092915050565b6000612b5183836130ed565b60208301905092915050565b612b66816135f6565b82525050565b6000612b778261350b565b612b818185613539565b9350612b8c836134fb565b8060005b83811015612bbd578151612ba48882612b45565b9750612baf8361352c565b925050600181019050612b90565b5085935050505092915050565b612bd381613608565b82525050565b6000612be482613516565b612bee818561354a565b9350612bfe818560208601613679565b612c07816137b4565b840191505092915050565b6000612c1d82613521565b612c27818561355b565b9350612c37818560208601613679565b612c40816137b4565b840191505092915050565b6000612c5860348361355b565b91507f455243313135353a207472616e7366657220746f206e6f6e204552433131353560008301527f526563656976657220696d706c656d656e7465720000000000000000000000006020830152604082019050919050565b6000612cbe60288361355b565b91507f455243313135353a204552433131353552656365697665722072656a6563746560008301527f6420746f6b656e730000000000000000000000000000000000000000000000006020830152604082019050919050565b6000612d24602b8361355b565b91507f455243313135353a2062616c616e636520717565727920666f7220746865207a60008301527f65726f20616464726573730000000000000000000000000000000000000000006020830152604082019050919050565b6000612d8a601f8361355b565b91507f596f7520646964206e6f7420636c65616e2074686520776f726c6420796574006000830152602082019050919050565b6000612dca60298361355b565b91507f455243313135353a2063616c6c6572206973206e6f74206f776e6572206e6f7260008301527f20617070726f76656400000000000000000000000000000000000000000000006020830152604082019050919050565b6000612e3060258361355b565b91507f455243313135353a207472616e7366657220746f20746865207a65726f20616460008301527f64726573730000000000000000000000000000000000000000000000000000006020830152604082019050919050565b6000612e9660328361355b565b91507f455243313135353a207472616e736665722063616c6c6572206973206e6f742060008301527f6f776e6572206e6f7220617070726f76656400000000000000000000000000006020830152604082019050919050565b6000612efc602a8361355b565b91507f455243313135353a20696e73756666696369656e742062616c616e636520666f60008301527f72207472616e73666572000000000000000000000000000000000000000000006020830152604082019050919050565b6000612f6260298361355b565b91507f455243313135353a2073657474696e6720617070726f76616c2073746174757360008301527f20666f722073656c6600000000000000000000000000000000000000000000006020830152604082019050919050565b6000612fc860298361355b565b91507f455243313135353a206163636f756e747320616e6420696473206c656e67746860008301527f206d69736d6174636800000000000000000000000000000000000000000000006020830152604082019050919050565b600061302e60288361355b565b91507f455243313135353a2069647320616e6420616d6f756e7473206c656e6774682060008301527f6d69736d617463680000000000000000000000000000000000000000000000006020830152604082019050919050565b600061309460218361355b565b91507f455243313135353a206d696e7420746f20746865207a65726f2061646472657360008301527f73000000000000000000000000000000000000000000000000000000000000006020830152604082019050919050565b6130f681613660565b82525050565b61310581613660565b82525050565b60006020820190506131206000830184612b5d565b92915050565b600060a08201905061313b6000830188612b5d565b6131486020830187612b5d565b818103604083015261315a8186612b6c565b9050818103606083015261316e8185612b6c565b905081810360808301526131828184612bd9565b90509695505050505050565b600060a0820190506131a36000830188612b5d565b6131b06020830187612b5d565b6131bd60408301866130fc565b6131ca60608301856130fc565b81810360808301526131dc8184612bd9565b90509695505050505050565b600060208201905081810360008301526132028184612b6c565b905092915050565b600060408201905081810360008301526132248185612b6c565b905081810360208301526132388184612b6c565b90509392505050565b60006020820190506132566000830184612bca565b92915050565b600060208201905081810360008301526132768184612c12565b905092915050565b6000602082019050818103600083015261329781612c4b565b9050919050565b600060208201905081810360008301526132b781612cb1565b9050919050565b600060208201905081810360008301526132d781612d17565b9050919050565b600060208201905081810360008301526132f781612d7d565b9050919050565b6000602082019050818103600083015261331781612dbd565b9050919050565b6000602082019050818103600083015261333781612e23565b9050919050565b6000602082019050818103600083015261335781612e89565b9050919050565b6000602082019050818103600083015261337781612eef565b9050919050565b6000602082019050818103600083015261339781612f55565b9050919050565b600060208201905081810360008301526133b781612fbb565b9050919050565b600060208201905081810360008301526133d781613021565b9050919050565b600060208201905081810360008301526133f781613087565b9050919050565b600060208201905061341360008301846130fc565b92915050565b600060408201905061342e60008301856130fc565b61343b60208301846130fc565b9392505050565b6000604051905081810181811067ffffffffffffffff8211171561346957613468613785565b5b8060405250919050565b600067ffffffffffffffff82111561348e5761348d613785565b5b602082029050602081019050919050565b600067ffffffffffffffff8211156134ba576134b9613785565b5b602082029050602081019050919050565b600067ffffffffffffffff8211156134e6576134e5613785565b5b601f19601f8301169050602081019050919050565b6000819050602082019050919050565b600081519050919050565b600081519050919050565b600081519050919050565b6000602082019050919050565b600082825260208201905092915050565b600082825260208201905092915050565b600082825260208201905092915050565b600061357782613660565b915061358283613660565b9250827fffffffffffffffffffffffffffffffffffffffffffffffffffffffffffffffff038211156135b7576135b6613727565b5b828201905092915050565b60006135cd82613660565b91506135d883613660565b9250828210156135eb576135ea613727565b5b828203905092915050565b600061360182613640565b9050919050565b60008115159050919050565b60007fffffffff0000000000000000000000000000000000000000000000000000000082169050919050565b600073ffffffffffffffffffffffffffffffffffffffff82169050919050565b6000819050919050565b82818337600083830152505050565b60005b8381101561369757808201518184015260208101905061367c565b838111156136a6576000848401525b50505050565b600060028204905060018216806136c457607f821691505b602082108114156136d8576136d7613756565b5b50919050565b60006136e982613660565b91507fffffffffffffffffffffffffffffffffffffffffffffffffffffffffffffffff82141561371c5761371b613727565b5b600182019050919050565b7f4e487b7100000000000000000000000000000000000000000000000000000000600052601160045260246000fd5b7f4e487b7100000000000000000000000000000000000000000000000000000000600052602260045260246000fd5b7f4e487b7100000000000000000000000000000000000000000000000000000000600052604160045260246000fd5b6000601f19601f8301169050919050565b60008160e01c9050919050565b600060443d10156137e257613885565b60046000803e6137f36000516137c5565b6308c379a081146138045750613885565b60405160043d036004823e80513d602482011167ffffffffffffffff8211171561383057505050613885565b808201805167ffffffffffffffff81111561384f575050505050613885565b8060208301013d850181111561386a57505050505050613885565b613873826137b4565b60208401016040528296505050505050505b90565b613891816135f6565b811461389c57600080fd5b50565b6138a881613608565b81146138b357600080fd5b50565b6138bf81613614565b81146138ca57600080fd5b50565b6138d681613660565b81146138e157600080fd5b5056fea2646970667358221220c494e46d7d27944fdb55adb4b2d4e76a93c5bce04107eb80c54c1e0dd85ae6c064736f6c63430008000033",
  "immutableReferences": {},
  "source": "pragma solidity ^0.8.0;\r\n\r\nimport \"@openzeppelin/contracts/token/ERC1155/ERC1155.sol\";\r\n\r\nimport \"./Strings.sol\";\r\n\r\n\r\ncontract TrashTag is ERC1155{\r\n\r\n    using Strings for string;\r\n\r\n    address private admin;\r\n    uint private amountReward;\r\n\r\n\r\n    mapping(address => mapping(uint256 => string)) tokenURI;\r\n    mapping(address => User) users;\r\n\r\n    string constant private baseMetadataURI = \"ipfs://\";\r\n\r\n    struct User{\r\n        uint NFTAmount;\r\n        bool approved;\r\n    }\r\n\r\n\r\n\r\n    constructor() public ERC1155(\"\"){\r\n        admin = msg.sender;\r\n        setAmountReward(100);\r\n    }\r\n\r\n\r\n    // Only the contract owner can execute\r\n    modifier governance(){\r\n        require(msg.sender == admin);\r\n        _;\r\n    }\r\n\r\n\r\n    //Chekc if the msg.sender is approved to earn rewards\r\n    modifier Approved(address _to){\r\n        require(users[_to].approved == true);\r\n        _;\r\n    }\r\n\r\n\r\n    //Only governance is able to approved a receiver\r\n    function approve(address _to)public governance {\r\n        users[_to].approved = true;\r\n    }\r\n\r\n    function mint(string calldata _uri)public Approved(msg.sender){\r\n\r\n        //id 0 is for the coin, so NFT's id start at 1\r\n        users[msg.sender].NFTAmount ++;\r\n\r\n        //Id's of toeken is determined by the amount store in struct\r\n        uint id = users[msg.sender].NFTAmount;\r\n\r\n        tokenURI[msg.sender][id] = _uri;\r\n\r\n        _mint(msg.sender, id, 1, \"\"); //NFT\r\n        _mint(msg.sender, 0, amountReward, \"\"); //Crypto\r\n\r\n\r\n        //Next token need to be approved again\r\n        users[msg.sender].approved = false;\r\n    }\r\n\r\n\r\n    function setAmountReward(uint _newAmount)private governance{\r\n        amountReward = _newAmount;\r\n    }\r\n\r\n\r\n    function SendToken(address _to,uint _id) public{\r\n        require(users[msg.sender].NFTAmount >0, \"You did not clean the world yet\");\r\n\r\n        setApprovalForAll(_to, true);\r\n        safeTransferFrom(msg.sender, _to, _id, 1, \"\");\r\n\r\n        setApprovalForAll(_to, false);\r\n\r\n        string memory uri =tokenURI[msg.sender][_id];\r\n\r\n        uint newId = users[_to].NFTAmount++;\r\n\r\n        tokenURI[_to][newId]= uri;\r\n\r\n        tokenURI[msg.sender][_id] = \"not yours anymore\";\r\n    }\r\n\r\n    function sendCoin(address _to,uint amount) public{\r\n        require(balanceOf(msg.sender,0)<= amount);\r\n\r\n        uint id = users[_to].NFTAmount++;\r\n\r\n        setApprovalForAll(_to, true);\r\n\r\n        safeTransferFrom(msg.sender, _to, id, 1, \"\");\r\n\r\n        setApprovalForAll(_to, false);\r\n\r\n        string memory uri =tokenURI[msg.sender][id];\r\n\r\n\r\n        tokenURI[_to][id]= uri;\r\n\r\n        tokenURI[msg.sender][id-1] = \"not yours anymore\";\r\n    }\r\n\r\n\r\n\r\n    function getBalanceCoin(address _receiver) public view returns(uint){\r\n        return balanceOf(_receiver, 0);\r\n    }\r\n\r\n    function getAmountNFT(address _receiver) public view returns(uint){\r\n\r\n        /*To get nft's ID via typescript\r\n\r\n        var ids:number[] = new Array(NFTAmount)\r\n        while (i=1,i<=NFTAmount, i++ ){\r\n            ids[i]=i\r\n        }\r\n        */\r\n\r\n\r\n        return users[_receiver].NFTAmount;\r\n    }\r\n\r\n\r\n    function getURI(uint _tokenId)public view returns(string memory){\r\n        string memory hashURI = tokenURI[msg.sender][_tokenId];\r\n        return Strings.strConcat(\r\n            baseMetadataURI,\r\n            hashURI\r\n        );\r\n    }\r\n\r\n    function getAdmin()public view returns(address){\r\n        return admin;\r\n    }\r\n}\r\n\r\n\r\n\r\n",
  "sourcePath": "C:/Users/FourbeurFourmi/Desktop/Projet Eco Token/V1 React-Typescript/trash-tag-dapp/contracts/Trashtag.sol",
  "compiler": {
    "name": "solc",
    "version": "0.8.0+commit.c7dfd78e.Emscripten.clang"
  },
  "schemaVersion": "3.3.4",
  "updatedAt": "2021-05-28T10:04:04.531Z",
  "networkType": "ethereum",
  "devdoc": {
    "kind": "dev",
    "methods": {
      "balanceOf(address,uint256)": {
        "details": "See {IERC1155-balanceOf}. Requirements: - `account` cannot be the zero address."
      },
      "balanceOfBatch(address[],uint256[])": {
        "details": "See {IERC1155-balanceOfBatch}. Requirements: - `accounts` and `ids` must have the same length."
      },
      "isApprovedForAll(address,address)": {
        "details": "See {IERC1155-isApprovedForAll}."
      },
      "safeBatchTransferFrom(address,address,uint256[],uint256[],bytes)": {
        "details": "See {IERC1155-safeBatchTransferFrom}."
      },
      "safeTransferFrom(address,address,uint256,uint256,bytes)": {
        "details": "See {IERC1155-safeTransferFrom}."
      },
      "setApprovalForAll(address,bool)": {
        "details": "See {IERC1155-setApprovalForAll}."
      },
      "supportsInterface(bytes4)": {
        "details": "See {IERC165-supportsInterface}."
      },
      "uri(uint256)": {
        "details": "See {IERC1155MetadataURI-uri}. This implementation returns the same URI for *all* token types. It relies on the token type ID substitution mechanism https://eips.ethereum.org/EIPS/eip-1155#metadata[defined in the EIP]. Clients calling this function must replace the `\\{id\\}` substring with the actual token type ID."
      }
    },
    "version": 1
  },
  "userdoc": {
    "kind": "user",
    "methods": {},
    "version": 1
  }
}