{
  "contractName": "Jobcoin",
  "abi": [
    {
      "inputs": [],
      "stateMutability": "nonpayable",
      "type": "constructor"
    },
    {
      "anonymous": false,
      "inputs": [
        {
          "indexed": true,
          "internalType": "address",
          "name": "owner",
          "type": "address"
        },
        {
          "indexed": true,
          "internalType": "address",
          "name": "spender",
          "type": "address"
        },
        {
          "indexed": false,
          "internalType": "uint256",
          "name": "value",
          "type": "uint256"
        }
      ],
      "name": "Approval",
      "type": "event"
    },
    {
      "anonymous": false,
      "inputs": [
        {
          "indexed": true,
          "internalType": "address",
          "name": "previousOwner",
          "type": "address"
        },
        {
          "indexed": true,
          "internalType": "address",
          "name": "newOwner",
          "type": "address"
        }
      ],
      "name": "OwnershipTransferred",
      "type": "event"
    },
    {
      "anonymous": false,
      "inputs": [
        {
          "indexed": true,
          "internalType": "address",
          "name": "from",
          "type": "address"
        },
        {
          "indexed": true,
          "internalType": "address",
          "name": "to",
          "type": "address"
        },
        {
          "indexed": false,
          "internalType": "uint256",
          "name": "value",
          "type": "uint256"
        }
      ],
      "name": "Transfer",
      "type": "event"
    },
    {
      "inputs": [
        {
          "internalType": "address",
          "name": "owner",
          "type": "address"
        },
        {
          "internalType": "address",
          "name": "spender",
          "type": "address"
        }
      ],
      "name": "allowance",
      "outputs": [
        {
          "internalType": "uint256",
          "name": "",
          "type": "uint256"
        }
      ],
      "stateMutability": "view",
      "type": "function"
    },
    {
      "inputs": [
        {
          "internalType": "address",
          "name": "spender",
          "type": "address"
        },
        {
          "internalType": "uint256",
          "name": "amount",
          "type": "uint256"
        }
      ],
      "name": "approve",
      "outputs": [
        {
          "internalType": "bool",
          "name": "",
          "type": "bool"
        }
      ],
      "stateMutability": "nonpayable",
      "type": "function"
    },
    {
      "inputs": [
        {
          "internalType": "address",
          "name": "account",
          "type": "address"
        }
      ],
      "name": "balanceOf",
      "outputs": [
        {
          "internalType": "uint256",
          "name": "",
          "type": "uint256"
        }
      ],
      "stateMutability": "view",
      "type": "function"
    },
    {
      "inputs": [],
      "name": "decimals",
      "outputs": [
        {
          "internalType": "uint8",
          "name": "",
          "type": "uint8"
        }
      ],
      "stateMutability": "view",
      "type": "function"
    },
    {
      "inputs": [
        {
          "internalType": "address",
          "name": "spender",
          "type": "address"
        },
        {
          "internalType": "uint256",
          "name": "subtractedValue",
          "type": "uint256"
        }
      ],
      "name": "decreaseAllowance",
      "outputs": [
        {
          "internalType": "bool",
          "name": "",
          "type": "bool"
        }
      ],
      "stateMutability": "nonpayable",
      "type": "function"
    },
    {
      "inputs": [
        {
          "internalType": "address",
          "name": "spender",
          "type": "address"
        },
        {
          "internalType": "uint256",
          "name": "addedValue",
          "type": "uint256"
        }
      ],
      "name": "increaseAllowance",
      "outputs": [
        {
          "internalType": "bool",
          "name": "",
          "type": "bool"
        }
      ],
      "stateMutability": "nonpayable",
      "type": "function"
    },
    {
      "inputs": [],
      "name": "name",
      "outputs": [
        {
          "internalType": "string",
          "name": "",
          "type": "string"
        }
      ],
      "stateMutability": "view",
      "type": "function"
    },
    {
      "inputs": [],
      "name": "owner",
      "outputs": [
        {
          "internalType": "address",
          "name": "",
          "type": "address"
        }
      ],
      "stateMutability": "view",
      "type": "function"
    },
    {
      "inputs": [],
      "name": "renounceOwnership",
      "outputs": [],
      "stateMutability": "nonpayable",
      "type": "function"
    },
    {
      "inputs": [],
      "name": "symbol",
      "outputs": [
        {
          "internalType": "string",
          "name": "",
          "type": "string"
        }
      ],
      "stateMutability": "view",
      "type": "function"
    },
    {
      "inputs": [],
      "name": "totalSupply",
      "outputs": [
        {
          "internalType": "uint256",
          "name": "",
          "type": "uint256"
        }
      ],
      "stateMutability": "view",
      "type": "function"
    },
    {
      "inputs": [
        {
          "internalType": "address",
          "name": "recipient",
          "type": "address"
        },
        {
          "internalType": "uint256",
          "name": "amount",
          "type": "uint256"
        }
      ],
      "name": "transfer",
      "outputs": [
        {
          "internalType": "bool",
          "name": "",
          "type": "bool"
        }
      ],
      "stateMutability": "nonpayable",
      "type": "function"
    },
    {
      "inputs": [
        {
          "internalType": "address",
          "name": "sender",
          "type": "address"
        },
        {
          "internalType": "address",
          "name": "recipient",
          "type": "address"
        },
        {
          "internalType": "uint256",
          "name": "amount",
          "type": "uint256"
        }
      ],
      "name": "transferFrom",
      "outputs": [
        {
          "internalType": "bool",
          "name": "",
          "type": "bool"
        }
      ],
      "stateMutability": "nonpayable",
      "type": "function"
    },
    {
      "inputs": [
        {
          "internalType": "address",
          "name": "newOwner",
          "type": "address"
        }
      ],
      "name": "transferOwnership",
      "outputs": [],
      "stateMutability": "nonpayable",
      "type": "function"
    },
    {
      "inputs": [],
      "name": "GetForTest",
      "outputs": [],
      "stateMutability": "nonpayable",
      "type": "function"
    },
    {
      "inputs": [],
      "name": "getAmountReward",
      "outputs": [
        {
          "internalType": "uint256",
          "name": "",
          "type": "uint256"
        }
      ],
      "stateMutability": "view",
      "type": "function"
    },
    {
      "inputs": [],
      "name": "getAmountVerifReward",
      "outputs": [
        {
          "internalType": "uint256",
          "name": "",
          "type": "uint256"
        }
      ],
      "stateMutability": "view",
      "type": "function"
    },
    {
      "inputs": [],
      "name": "getAmountVerifStake",
      "outputs": [
        {
          "internalType": "uint256",
          "name": "",
          "type": "uint256"
        }
      ],
      "stateMutability": "view",
      "type": "function"
    },
    {
      "inputs": [],
      "name": "stakeOf",
      "outputs": [
        {
          "internalType": "uint256",
          "name": "",
          "type": "uint256"
        }
      ],
      "stateMutability": "view",
      "type": "function"
    },
    {
      "inputs": [],
      "name": "totalStakes",
      "outputs": [
        {
          "internalType": "uint256",
          "name": "",
          "type": "uint256"
        }
      ],
      "stateMutability": "view",
      "type": "function"
    },
    {
      "inputs": [],
      "name": "becomeVerificator",
      "outputs": [],
      "stateMutability": "nonpayable",
      "type": "function"
    },
    {
      "inputs": [],
      "name": "withdrawStake",
      "outputs": [],
      "stateMutability": "nonpayable",
      "type": "function"
    }
  ],
  "bytecode": "0x60806040523480156200001157600080fd5b506040518060400160405280600781526020017f4a6f62436f696e000000000000000000000000000000000000000000000000008152506040518060400160405280600381526020017f4a4243000000000000000000000000000000000000000000000000000000000081525081600390805190602001906200009692919062000307565b508060049080519060200190620000af92919062000307565b5050506000620000c46200019560201b60201c565b905080600560006101000a81548173ffffffffffffffffffffffffffffffffffffffff021916908373ffffffffffffffffffffffffffffffffffffffff1602179055508073ffffffffffffffffffffffffffffffffffffffff16600073ffffffffffffffffffffffffffffffffffffffff167f8be0079c531659141344cd1fd0a4f28419497f9722a3daafe3b4186f6b6457e060405160405180910390a350620001763360006200019d60201b60201c565b6064600681905550600a6007819055506103e860088190555062000555565b600033905090565b600073ffffffffffffffffffffffffffffffffffffffff168273ffffffffffffffffffffffffffffffffffffffff16141562000210576040517f08c379a000000000000000000000000000000000000000000000000000000000815260040162000207906200040a565b60405180910390fd5b62000224600083836200030260201b60201c565b80600260008282546200023891906200045a565b92505081905550806000808473ffffffffffffffffffffffffffffffffffffffff1673ffffffffffffffffffffffffffffffffffffffff16815260200190815260200160002060008282546200028f91906200045a565b925050819055508173ffffffffffffffffffffffffffffffffffffffff16600073ffffffffffffffffffffffffffffffffffffffff167fddf252ad1be2c89b69c2b068fc378daa952ba7f163c4a11628f55a4df523b3ef83604051620002f691906200042c565b60405180910390a35050565b505050565b8280546200031590620004c1565b90600052602060002090601f01602090048101928262000339576000855562000385565b82601f106200035457805160ff191683800117855562000385565b8280016001018555821562000385579182015b828111156200038457825182559160200191906001019062000367565b5b50905062000394919062000398565b5090565b5b80821115620003b357600081600090555060010162000399565b5090565b6000620003c6601f8362000449565b91507f45524332303a206d696e7420746f20746865207a65726f2061646472657373006000830152602082019050919050565b6200040481620004b7565b82525050565b600060208201905081810360008301526200042581620003b7565b9050919050565b6000602082019050620004436000830184620003f9565b92915050565b600082825260208201905092915050565b60006200046782620004b7565b91506200047483620004b7565b9250827fffffffffffffffffffffffffffffffffffffffffffffffffffffffffffffffff03821115620004ac57620004ab620004f7565b5b828201905092915050565b6000819050919050565b60006002820490506001821680620004da57607f821691505b60208210811415620004f157620004f062000526565b5b50919050565b7f4e487b7100000000000000000000000000000000000000000000000000000000600052601160045260246000fd5b7f4e487b7100000000000000000000000000000000000000000000000000000000600052602260045260246000fd5b6125d480620005656000396000f3fe608060405234801561001057600080fd5b50600436106101425760003560e01c806395d89b41116100b8578063bf9befb11161007c578063bf9befb11461036b578063bfd8f44514610389578063d6960d1214610393578063dd62ed3e146103b1578063f2fde38b146103e1578063fe160181146103fd57610142565b806395d89b41146102c5578063a457c2d7146102e3578063a9059cbb14610313578063bdde852814610343578063bed9d8611461036157610142565b8063395093511161010a5780633950935114610201578063588922261461023157806370a082311461024f578063715018a61461027f57806389ba217f146102895780638da5cb5b146102a757610142565b806306fdde0314610147578063095ea7b31461016557806318160ddd1461019557806323b872dd146101b3578063313ce567146101e3575b600080fd5b61014f610407565b60405161015c9190612169565b60405180910390f35b61017f600480360381019061017a9190611afa565b610499565b60405161018c919061214e565b60405180910390f35b61019d6104b7565b6040516101aa919061236b565b60405180910390f35b6101cd60048036038101906101c89190611aab565b6104c1565b6040516101da919061214e565b60405180910390f35b6101eb6105c2565b6040516101f89190612386565b60405180910390f35b61021b60048036038101906102169190611afa565b6105cb565b604051610228919061214e565b60405180910390f35b610239610677565b604051610246919061236b565b60405180910390f35b61026960048036038101906102649190611a46565b610681565b604051610276919061236b565b60405180910390f35b6102876106c9565b005b610291610806565b60405161029e919061236b565b60405180910390f35b6102af610810565b6040516102bc9190612133565b60405180910390f35b6102cd61083a565b6040516102da9190612169565b60405180910390f35b6102fd60048036038101906102f89190611afa565b6108cc565b60405161030a919061214e565b60405180910390f35b61032d60048036038101906103289190611afa565b6109c0565b60405161033a919061214e565b60405180910390f35b61034b6109de565b604051610358919061236b565b60405180910390f35b6103696109e8565b005b610373610aa5565b604051610380919061236b565b60405180910390f35b610391610b90565b005b61039b610b9e565b6040516103a8919061236b565b60405180910390f35b6103cb60048036038101906103c69190611a6f565b610c3a565b6040516103d8919061236b565b60405180910390f35b6103fb60048036038101906103f69190611a46565b610cc1565b005b610405610e6d565b005b606060038054610416906124cf565b80601f0160208091040260200160405190810160405280929190818152602001828054610442906124cf565b801561048f5780601f106104645761010080835404028352916020019161048f565b820191906000526020600020905b81548152906001019060200180831161047257829003601f168201915b5050505050905090565b60006104ad6104a6610fb4565b8484610fbc565b6001905092915050565b6000600254905090565b60006104ce848484611187565b6000600160008673ffffffffffffffffffffffffffffffffffffffff1673ffffffffffffffffffffffffffffffffffffffff1681526020019081526020016000206000610519610fb4565b73ffffffffffffffffffffffffffffffffffffffff1673ffffffffffffffffffffffffffffffffffffffff16815260200190815260200160002054905082811015610599576040517f08c379a00000000000000000000000000000000000000000000000000000000081526004016105909061226b565b60405180910390fd5b6105b6856105a5610fb4565b85846105b19190612413565b610fbc565b60019150509392505050565b60006012905090565b600061066d6105d8610fb4565b8484600160006105e6610fb4565b73ffffffffffffffffffffffffffffffffffffffff1673ffffffffffffffffffffffffffffffffffffffff16815260200190815260200160002060008873ffffffffffffffffffffffffffffffffffffffff1673ffffffffffffffffffffffffffffffffffffffff1681526020019081526020016000205461066891906123bd565b610fbc565b6001905092915050565b6000600654905090565b60008060008373ffffffffffffffffffffffffffffffffffffffff1673ffffffffffffffffffffffffffffffffffffffff168152602001908152602001600020549050919050565b6106d1610fb4565b73ffffffffffffffffffffffffffffffffffffffff166106ef610810565b73ffffffffffffffffffffffffffffffffffffffff1614610745576040517f08c379a000000000000000000000000000000000000000000000000000000000815260040161073c9061228b565b60405180910390fd5b600073ffffffffffffffffffffffffffffffffffffffff16600560009054906101000a900473ffffffffffffffffffffffffffffffffffffffff1673ffffffffffffffffffffffffffffffffffffffff167f8be0079c531659141344cd1fd0a4f28419497f9722a3daafe3b4186f6b6457e060405160405180910390a36000600560006101000a81548173ffffffffffffffffffffffffffffffffffffffff021916908373ffffffffffffffffffffffffffffffffffffffff160217905550565b6000600854905090565b6000600560009054906101000a900473ffffffffffffffffffffffffffffffffffffffff16905090565b606060048054610849906124cf565b80601f0160208091040260200160405190810160405280929190818152602001828054610875906124cf565b80156108c25780601f10610897576101008083540402835291602001916108c2565b820191906000526020600020905b8154815290600101906020018083116108a557829003601f168201915b5050505050905090565b600080600160006108db610fb4565b73ffffffffffffffffffffffffffffffffffffffff1673ffffffffffffffffffffffffffffffffffffffff16815260200190815260200160002060008573ffffffffffffffffffffffffffffffffffffffff1673ffffffffffffffffffffffffffffffffffffffff16815260200190815260200160002054905082811015610998576040517f08c379a000000000000000000000000000000000000000000000000000000000815260040161098f9061232b565b60405180910390fd5b6109b56109a3610fb4565b8585846109b09190612413565b610fbc565b600191505092915050565b60006109d46109cd610fb4565b8484611187565b6001905092915050565b6000600754905090565b60006109f333611406565b5090506001151581151514610a3d576040517f08c379a0000000000000000000000000000000000000000000000000000000008152600401610a349061220b565b60405180910390fd5b6000610a47610b9e565b9050610a52336114dd565b6000600a60003373ffffffffffffffffffffffffffffffffffffffff1673ffffffffffffffffffffffffffffffffffffffff16815260200190815260200160002081905550610aa1338261165e565b5050565b6000806000905060005b600980549050811015610b8857610b72600a600060098481548110610afd577f4e487b7100000000000000000000000000000000000000000000000000000000600052603260045260246000fd5b9060005260206000200160009054906101000a900473ffffffffffffffffffffffffffffffffffffffff1673ffffffffffffffffffffffffffffffffffffffff1673ffffffffffffffffffffffffffffffffffffffff16815260200190815260200160002054836117b290919063ffffffff16565b9150600181610b8191906123bd565b9050610aaf565b508091505090565b610b9c336103e861165e565b565b600080610baa33611406565b5090506001151581151514610bf4576040517f08c379a0000000000000000000000000000000000000000000000000000000008152600401610beb9061230b565b60405180910390fd5b600a60003373ffffffffffffffffffffffffffffffffffffffff1673ffffffffffffffffffffffffffffffffffffffff1681526020019081526020016000205491505090565b6000600160008473ffffffffffffffffffffffffffffffffffffffff1673ffffffffffffffffffffffffffffffffffffffff16815260200190815260200160002060008373ffffffffffffffffffffffffffffffffffffffff1673ffffffffffffffffffffffffffffffffffffffff16815260200190815260200160002054905092915050565b610cc9610fb4565b73ffffffffffffffffffffffffffffffffffffffff16610ce7610810565b73ffffffffffffffffffffffffffffffffffffffff1614610d3d576040517f08c379a0000000000000000000000000000000000000000000000000000000008152600401610d349061228b565b60405180910390fd5b600073ffffffffffffffffffffffffffffffffffffffff168173ffffffffffffffffffffffffffffffffffffffff161415610dad576040517f08c379a0000000000000000000000000000000000000000000000000000000008152600401610da4906121cb565b60405180910390fd5b8073ffffffffffffffffffffffffffffffffffffffff16600560009054906101000a900473ffffffffffffffffffffffffffffffffffffffff1673ffffffffffffffffffffffffffffffffffffffff167f8be0079c531659141344cd1fd0a4f28419497f9722a3daafe3b4186f6b6457e060405160405180910390a380600560006101000a81548173ffffffffffffffffffffffffffffffffffffffff021916908373ffffffffffffffffffffffffffffffffffffffff16021790555050565b6000610e7833611406565b5090508015610ebc576040517f08c379a0000000000000000000000000000000000000000000000000000000008152600401610eb39061224b565b60405180910390fd5b610ec8336008546117c8565b6000600a60003373ffffffffffffffffffffffffffffffffffffffff1673ffffffffffffffffffffffffffffffffffffffff168152602001908152602001600020541415610f1a57610f193361199c565b5b610f6e600854600a60003373ffffffffffffffffffffffffffffffffffffffff1673ffffffffffffffffffffffffffffffffffffffff168152602001908152602001600020546117b290919063ffffffff16565b600a60003373ffffffffffffffffffffffffffffffffffffffff1673ffffffffffffffffffffffffffffffffffffffff1681526020019081526020016000208190555050565b600033905090565b600073ffffffffffffffffffffffffffffffffffffffff168373ffffffffffffffffffffffffffffffffffffffff16141561102c576040517f08c379a0000000000000000000000000000000000000000000000000000000008152600401611023906122eb565b60405180910390fd5b600073ffffffffffffffffffffffffffffffffffffffff168273ffffffffffffffffffffffffffffffffffffffff16141561109c576040517f08c379a0000000000000000000000000000000000000000000000000000000008152600401611093906121eb565b60405180910390fd5b80600160008573ffffffffffffffffffffffffffffffffffffffff1673ffffffffffffffffffffffffffffffffffffffff16815260200190815260200160002060008473ffffffffffffffffffffffffffffffffffffffff1673ffffffffffffffffffffffffffffffffffffffff168152602001908152602001600020819055508173ffffffffffffffffffffffffffffffffffffffff168373ffffffffffffffffffffffffffffffffffffffff167f8c5be1e5ebec7d5bd14f71427d1e84f3dd0314c0f7b2291e5b200ac8c7c3b9258360405161117a919061236b565b60405180910390a3505050565b600073ffffffffffffffffffffffffffffffffffffffff168373ffffffffffffffffffffffffffffffffffffffff1614156111f7576040517f08c379a00000000000000000000000000000000000000000000000000000000081526004016111ee906122cb565b60405180910390fd5b600073ffffffffffffffffffffffffffffffffffffffff168273ffffffffffffffffffffffffffffffffffffffff161415611267576040517f08c379a000000000000000000000000000000000000000000000000000000000815260040161125e9061218b565b60405180910390fd5b611272838383611a17565b60008060008573ffffffffffffffffffffffffffffffffffffffff1673ffffffffffffffffffffffffffffffffffffffff168152602001908152602001600020549050818110156112f8576040517f08c379a00000000000000000000000000000000000000000000000000000000081526004016112ef9061222b565b60405180910390fd5b81816113049190612413565b6000808673ffffffffffffffffffffffffffffffffffffffff1673ffffffffffffffffffffffffffffffffffffffff16815260200190815260200160002081905550816000808573ffffffffffffffffffffffffffffffffffffffff1673ffffffffffffffffffffffffffffffffffffffff168152602001908152602001600020600082825461139491906123bd565b925050819055508273ffffffffffffffffffffffffffffffffffffffff168473ffffffffffffffffffffffffffffffffffffffff167fddf252ad1be2c89b69c2b068fc378daa952ba7f163c4a11628f55a4df523b3ef846040516113f8919061236b565b60405180910390a350505050565b600080600090505b6009805490508110156114d05760098181548110611455577f4e487b7100000000000000000000000000000000000000000000000000000000600052603260045260246000fd5b9060005260206000200160009054906101000a900473ffffffffffffffffffffffffffffffffffffffff1673ffffffffffffffffffffffffffffffffffffffff168373ffffffffffffffffffffffffffffffffffffffff1614156114bc57600191506114d8565b6001816114c991906123bd565b905061140e565b600080915091505b915091565b6000806114e983611406565b91509150811561165957600960016009805490506115079190612413565b8154811061153e577f4e487b7100000000000000000000000000000000000000000000000000000000600052603260045260246000fd5b9060005260206000200160009054906101000a900473ffffffffffffffffffffffffffffffffffffffff16600982815481106115a3577f4e487b7100000000000000000000000000000000000000000000000000000000600052603260045260246000fd5b9060005260206000200160006101000a81548173ffffffffffffffffffffffffffffffffffffffff021916908373ffffffffffffffffffffffffffffffffffffffff1602179055506009805480611623577f4e487b7100000000000000000000000000000000000000000000000000000000600052603160045260246000fd5b6001900381819060005260206000200160006101000a81549073ffffffffffffffffffffffffffffffffffffffff021916905590555b505050565b600073ffffffffffffffffffffffffffffffffffffffff168273ffffffffffffffffffffffffffffffffffffffff1614156116ce576040517f08c379a00000000000000000000000000000000000000000000000000000000081526004016116c59061234b565b60405180910390fd5b6116da60008383611a17565b80600260008282546116ec91906123bd565b92505081905550806000808473ffffffffffffffffffffffffffffffffffffffff1673ffffffffffffffffffffffffffffffffffffffff168152602001908152602001600020600082825461174191906123bd565b925050819055508173ffffffffffffffffffffffffffffffffffffffff16600073ffffffffffffffffffffffffffffffffffffffff167fddf252ad1be2c89b69c2b068fc378daa952ba7f163c4a11628f55a4df523b3ef836040516117a6919061236b565b60405180910390a35050565b600081836117c091906123bd565b905092915050565b600073ffffffffffffffffffffffffffffffffffffffff168273ffffffffffffffffffffffffffffffffffffffff161415611838576040517f08c379a000000000000000000000000000000000000000000000000000000000815260040161182f906122ab565b60405180910390fd5b61184482600083611a17565b60008060008473ffffffffffffffffffffffffffffffffffffffff1673ffffffffffffffffffffffffffffffffffffffff168152602001908152602001600020549050818110156118ca576040517f08c379a00000000000000000000000000000000000000000000000000000000081526004016118c1906121ab565b60405180910390fd5b81816118d69190612413565b6000808573ffffffffffffffffffffffffffffffffffffffff1673ffffffffffffffffffffffffffffffffffffffff16815260200190815260200160002081905550816002600082825461192a9190612413565b92505081905550600073ffffffffffffffffffffffffffffffffffffffff168373ffffffffffffffffffffffffffffffffffffffff167fddf252ad1be2c89b69c2b068fc378daa952ba7f163c4a11628f55a4df523b3ef8460405161198f919061236b565b60405180910390a3505050565b60006119a782611406565b50905080611a13576009829080600181540180825580915050600190039060005260206000200160009091909190916101000a81548173ffffffffffffffffffffffffffffffffffffffff021916908373ffffffffffffffffffffffffffffffffffffffff1602179055505b5050565b505050565b600081359050611a2b81612570565b92915050565b600081359050611a4081612587565b92915050565b600060208284031215611a5857600080fd5b6000611a6684828501611a1c565b91505092915050565b60008060408385031215611a8257600080fd5b6000611a9085828601611a1c565b9250506020611aa185828601611a1c565b9150509250929050565b600080600060608486031215611ac057600080fd5b6000611ace86828701611a1c565b9350506020611adf86828701611a1c565b9250506040611af086828701611a31565b9150509250925092565b60008060408385031215611b0d57600080fd5b6000611b1b85828601611a1c565b9250506020611b2c85828601611a31565b9150509250929050565b611b3f81612447565b82525050565b611b4e81612459565b82525050565b6000611b5f826123a1565b611b6981856123ac565b9350611b7981856020860161249c565b611b828161255f565b840191505092915050565b6000611b9a6023836123ac565b91507f45524332303a207472616e7366657220746f20746865207a65726f206164647260008301527f65737300000000000000000000000000000000000000000000000000000000006020830152604082019050919050565b6000611c006022836123ac565b91507f45524332303a206275726e20616d6f756e7420657863656564732062616c616e60008301527f63650000000000000000000000000000000000000000000000000000000000006020830152604082019050919050565b6000611c666026836123ac565b91507f4f776e61626c653a206e6577206f776e657220697320746865207a65726f206160008301527f64647265737300000000000000000000000000000000000000000000000000006020830152604082019050919050565b6000611ccc6022836123ac565b91507f45524332303a20617070726f766520746f20746865207a65726f20616464726560008301527f73730000000000000000000000000000000000000000000000000000000000006020830152604082019050919050565b6000611d32603a836123ac565b91507f596f7520617265206e6f742061207665726966696361746f722c20736f20796f60008301527f752063616e277420776974686472617720616e79207374616b650000000000006020830152604082019050919050565b6000611d986026836123ac565b91507f45524332303a207472616e7366657220616d6f756e742065786365656473206260008301527f616c616e636500000000000000000000000000000000000000000000000000006020830152604082019050919050565b6000611dfe601b836123ac565b91507f596f752061726520616c7265616479207665726966696361746f7200000000006000830152602082019050919050565b6000611e3e6028836123ac565b91507f45524332303a207472616e7366657220616d6f756e742065786365656473206160008301527f6c6c6f77616e63650000000000000000000000000000000000000000000000006020830152604082019050919050565b6000611ea46020836123ac565b91507f4f776e61626c653a2063616c6c6572206973206e6f7420746865206f776e65726000830152602082019050919050565b6000611ee46021836123ac565b91507f45524332303a206275726e2066726f6d20746865207a65726f2061646472657360008301527f73000000000000000000000000000000000000000000000000000000000000006020830152604082019050919050565b6000611f4a6025836123ac565b91507f45524332303a207472616e736665722066726f6d20746865207a65726f20616460008301527f64726573730000000000000000000000000000000000000000000000000000006020830152604082019050919050565b6000611fb06024836123ac565b91507f45524332303a20617070726f76652066726f6d20746865207a65726f2061646460008301527f72657373000000000000000000000000000000000000000000000000000000006020830152604082019050919050565b60006120166031836123ac565b91507f596f7520617265206e6f74207665726966696361746f722c20736f20796f752060008301527f646f6e27742068617665207374616b652e0000000000000000000000000000006020830152604082019050919050565b600061207c6025836123ac565b91507f45524332303a2064656372656173656420616c6c6f77616e63652062656c6f7760008301527f207a65726f0000000000000000000000000000000000000000000000000000006020830152604082019050919050565b60006120e2601f836123ac565b91507f45524332303a206d696e7420746f20746865207a65726f2061646472657373006000830152602082019050919050565b61211e81612485565b82525050565b61212d8161248f565b82525050565b60006020820190506121486000830184611b36565b92915050565b60006020820190506121636000830184611b45565b92915050565b600060208201905081810360008301526121838184611b54565b905092915050565b600060208201905081810360008301526121a481611b8d565b9050919050565b600060208201905081810360008301526121c481611bf3565b9050919050565b600060208201905081810360008301526121e481611c59565b9050919050565b6000602082019050818103600083015261220481611cbf565b9050919050565b6000602082019050818103600083015261222481611d25565b9050919050565b6000602082019050818103600083015261224481611d8b565b9050919050565b6000602082019050818103600083015261226481611df1565b9050919050565b6000602082019050818103600083015261228481611e31565b9050919050565b600060208201905081810360008301526122a481611e97565b9050919050565b600060208201905081810360008301526122c481611ed7565b9050919050565b600060208201905081810360008301526122e481611f3d565b9050919050565b6000602082019050818103600083015261230481611fa3565b9050919050565b6000602082019050818103600083015261232481612009565b9050919050565b600060208201905081810360008301526123448161206f565b9050919050565b60006020820190508181036000830152612364816120d5565b9050919050565b60006020820190506123806000830184612115565b92915050565b600060208201905061239b6000830184612124565b92915050565b600081519050919050565b600082825260208201905092915050565b60006123c882612485565b91506123d383612485565b9250827fffffffffffffffffffffffffffffffffffffffffffffffffffffffffffffffff0382111561240857612407612501565b5b828201905092915050565b600061241e82612485565b915061242983612485565b92508282101561243c5761243b612501565b5b828203905092915050565b600061245282612465565b9050919050565b60008115159050919050565b600073ffffffffffffffffffffffffffffffffffffffff82169050919050565b6000819050919050565b600060ff82169050919050565b60005b838110156124ba57808201518184015260208101905061249f565b838111156124c9576000848401525b50505050565b600060028204905060018216806124e757607f821691505b602082108114156124fb576124fa612530565b5b50919050565b7f4e487b7100000000000000000000000000000000000000000000000000000000600052601160045260246000fd5b7f4e487b7100000000000000000000000000000000000000000000000000000000600052602260045260246000fd5b6000601f19601f8301169050919050565b61257981612447565b811461258457600080fd5b50565b61259081612485565b811461259b57600080fd5b5056fea26469706673582212200e0ef06b3558b6f4b094816c1a1ff6897d72c77991cc12c2068d3f8d078bc53164736f6c63430008000033",
  "immutableReferences": {},
  "source": "pragma solidity ^0.8.0;\r\n\r\n// SPDX-License-Identifier: MIT\r\n\r\n\r\nimport \"@openzeppelin/contracts/token/ERC20/ERC20.sol\";\r\nimport \"@openzeppelin/contracts/utils/math/SafeMath.sol\";\r\n/**\r\n * @dev Wrappers over Solidity's arithmetic operations.\r\n *\r\n * NOTE: `SignedSafeMath` is no longer needed starting with Solidity 0.8. The compiler\r\n * now has built in overflow checking.\r\n */\r\nimport \"@openzeppelin/contracts/access/Ownable.sol\";\r\n\r\n\r\n\r\n\r\n\r\n\r\ncontract Jobcoin is ERC20, Ownable{\r\n\r\n    //inspired by https://github.com/HQ20/StakingToken\r\n\r\n    using SafeMath for uint;\r\n\r\n\r\n\r\n    uint256 internal amountReward;\r\n    uint256 internal rewardVerificator;\r\n    uint256 internal verifStake;\r\n\r\n\r\n\r\n    address[] internal verificators;\r\n    mapping(address=> uint256) internal stakes;\r\n\r\n\r\n\r\n\r\n    constructor() ERC20(\"JobCoin\", \"JBC\")Ownable() {\r\n        _mint(msg.sender, 0);\r\n        amountReward = 100;\r\n        rewardVerificator = 10;\r\n        verifStake = 1000;\r\n    }\r\n\r\n    /*\r\n    * To get jobcoin to test the dapp, only testnet function\r\n    *Get 1000 JBC to test the Verificator section\r\n    */\r\n    function GetForTest() public{\r\n        _mint(msg.sender, 1000);\r\n    }\r\n\r\n\r\n    /*\r\n  *         TrashTag warriors rewards\r\n  */\r\n\r\n    function rewardCoinTrashtagWarrior(address _to) internal {\r\n        _mint(_to, amountReward);\r\n    }\r\n\r\n\r\n    /*\r\n    Contract exceed 24KB, need to do saving\r\n\r\n    function setAmountReward(uint _newAmount)public onlyOwner{\r\n        amountReward = _newAmount;\r\n    }\r\n    */\r\n\r\n\r\n    function getAmountReward()public view returns(uint){\r\n        return amountReward;\r\n    }\r\n\r\n\r\n\r\n    /*\r\n   *         Verificators rewards\r\n   */\r\n\r\n    /*\r\n    Contract exceed 24KB, need to do saving\r\n\r\n    function setAmountVerifReward(uint _newAmount)public onlyOwner{\r\n        rewardVerificator = _newAmount;\r\n    }\r\n    */\r\n\r\n\r\n    function getAmountVerifReward()public view returns(uint){\r\n        return rewardVerificator;\r\n    }\r\n\r\n\r\n    /*\r\n    *         Verificators inital stake\r\n    */\r\n\r\n    /*\r\n    Contract exceed 24KB, need to do saving\r\n\r\n    function setAmountVerifStake(uint _newAmount)public onlyOwner{\r\n        verifStake = _newAmount;\r\n    }\r\n    */\r\n\r\n\r\n    function getAmountVerifStake()public view returns(uint){\r\n        return verifStake;\r\n    }\r\n\r\n\r\n\r\n    /*\r\n    * @notice A method to check if an address is a verificator.\r\n    * @param _address The address to verify.\r\n    * @return bool, uint256 Whether the address is a verificator,\r\n    * and if so its position in the verificator array.\r\n    */\r\n\r\n    function isVerificator(address _to)internal view returns(bool res, uint s){\r\n\r\n        for(s=0; s< verificators.length; s+=1){\r\n            if(_to == verificators[s]) return(true, s);\r\n        }\r\n        return(false, 0);\r\n    }\r\n\r\n    /**\r\n    * @notice A method to add the msg.sender.\r\n    *\r\n    */\r\n    function addVerificator(address _to)\r\n    internal\r\n    {\r\n        (bool _isVerificator, ) = isVerificator(_to);\r\n        if(!_isVerificator) verificators.push(_to);\r\n    }\r\n\r\n    /*\r\n     * @notice A method to remove a msg.sender from verificator.\r\n     * @param  The verificator to remove.\r\n     */\r\n    function removeVerificator(address _to)\r\n    internal\r\n    {\r\n        (bool _isVerificator, uint s) = isVerificator(_to);\r\n        if(_isVerificator){\r\n            verificators[s] = verificators[verificators.length - 1];\r\n            verificators.pop();\r\n        }\r\n    }\r\n\r\n    /*\r\n    * @notice A method to retrieve the stake for a verificator.\r\n    * @param msg.sender The verificator to retrieve the stake for.\r\n    * @return uint256 The amount of JobCoin staked.\r\n    */\r\n    function stakeOf()\r\n    public\r\n    view\r\n    returns(uint)\r\n    {\r\n        (bool _isVerificator,)= isVerificator(msg.sender);\r\n        require(_isVerificator == true, \"You are not verificator, so you don't have stake.\");\r\n        return stakes[msg.sender];\r\n    }\r\n\r\n\r\n    /**\r\n     * @notice A method to the aggregated stakes from all stakeholders.\r\n     * @return uint256 The aggregated stakes from all stakeholders.\r\n     */\r\n    function totalStakes()\r\n    public\r\n    view\r\n    returns(uint)\r\n    {\r\n        uint _totalStakes = 0;\r\n        for (uint s = 0; s < verificators.length; s += 1){\r\n            _totalStakes = _totalStakes.add(stakes[verificators[s]]);\r\n        }\r\n        return _totalStakes;\r\n    }\r\n\r\n\r\n    /*\r\n    * User become Verificator\r\n    * He stakes 1000 virtual Jobcoin on the contract\r\n    * He are now able to judge trashtags done by Trashtag Warriors\r\n    */\r\n    function becomeVerificator()\r\n    public\r\n    {\r\n        (bool _isVerificator,) = isVerificator(msg.sender);\r\n        require(!_isVerificator, \"You are already verificator\");\r\n        _burn(msg.sender ,verifStake); //will revert if the user tries to stake more tokens than he owns\r\n        if(stakes[msg.sender] == 0) addVerificator(msg.sender);\r\n        stakes[msg.sender] = stakes[msg.sender].add(verifStake);\r\n    }\r\n\r\n\r\n\r\n\r\n    //Create 10 Jobcoin on Verficators stake\r\n    function verificatorReward(address _verificator)internal  {\r\n        (bool _isVerificator,) = isVerificator(_verificator);\r\n        if(_isVerificator){\r\n            stakes[_verificator]= stakes[_verificator].add(rewardVerificator);\r\n        }\r\n    }\r\n\r\n    //Destruct 20 Jobcoin on Verficators stake\r\n    function verificatorPenality(address _verificator) internal {\r\n        (bool _isVerificator, ) = isVerificator(_verificator);\r\n        if(_isVerificator){\r\n            if(stakes[_verificator]>=0){\r\n                stakes[_verificator]= stakes[_verificator].sub(rewardVerificator.mul(2));\r\n            }\r\n        }\r\n    }\r\n\r\n\r\n    /*\r\n    * User is not able to judge Trashtag challenges anymore\r\n    * His Jobcoin stake is send to his CryptoWallet\r\n    */\r\n    function withdrawStake()public{\r\n        (bool _isVerificator,) = isVerificator(msg.sender);\r\n        require(_isVerificator == true, \"You are not a verificator, so you can't withdraw any stake\");\r\n        uint actualStake = stakeOf();\r\n        removeVerificator(msg.sender);\r\n        stakes[msg.sender] = 0;\r\n        _mint(msg.sender, actualStake);\r\n    }\r\n\r\n\r\n\r\n\r\n}\r\n",
  "sourcePath": "C:\\Users\\FourbeurFourmi\\Desktop\\Projet Eco Token\\V1 React-Typescript\\trash-tag-dapp\\contracts\\Jobcoin.sol",
  "compiler": {
    "name": "solc",
    "version": "0.8.0+commit.c7dfd78e.Emscripten.clang"
  },
  "schemaVersion": "3.3.4",
  "updatedAt": "2021-07-26T12:36:18.289Z",
  "devdoc": {
    "kind": "dev",
    "methods": {
      "allowance(address,address)": {
        "details": "See {IERC20-allowance}."
      },
      "approve(address,uint256)": {
        "details": "See {IERC20-approve}. Requirements: - `spender` cannot be the zero address."
      },
      "balanceOf(address)": {
        "details": "See {IERC20-balanceOf}."
      },
      "decimals()": {
        "details": "Returns the number of decimals used to get its user representation. For example, if `decimals` equals `2`, a balance of `505` tokens should be displayed to a user as `5,05` (`505 / 10 ** 2`). Tokens usually opt for a value of 18, imitating the relationship between Ether and Wei. This is the value {ERC20} uses, unless this function is overridden; NOTE: This information is only used for _display_ purposes: it in no way affects any of the arithmetic of the contract, including {IERC20-balanceOf} and {IERC20-transfer}."
      },
      "decreaseAllowance(address,uint256)": {
        "details": "Atomically decreases the allowance granted to `spender` by the caller. This is an alternative to {approve} that can be used as a mitigation for problems described in {IERC20-approve}. Emits an {Approval} event indicating the updated allowance. Requirements: - `spender` cannot be the zero address. - `spender` must have allowance for the caller of at least `subtractedValue`."
      },
      "increaseAllowance(address,uint256)": {
        "details": "Atomically increases the allowance granted to `spender` by the caller. This is an alternative to {approve} that can be used as a mitigation for problems described in {IERC20-approve}. Emits an {Approval} event indicating the updated allowance. Requirements: - `spender` cannot be the zero address."
      },
      "name()": {
        "details": "Returns the name of the token."
      },
      "owner()": {
        "details": "Returns the address of the current owner."
      },
      "renounceOwnership()": {
        "details": "Leaves the contract without owner. It will not be possible to call `onlyOwner` functions anymore. Can only be called by the current owner. NOTE: Renouncing ownership will leave the contract without an owner, thereby removing any functionality that is only available to the owner."
      },
      "symbol()": {
        "details": "Returns the symbol of the token, usually a shorter version of the name."
      },
      "totalStakes()": {
        "returns": {
          "_0": "uint256 The aggregated stakes from all stakeholders."
        }
      },
      "totalSupply()": {
        "details": "See {IERC20-totalSupply}."
      },
      "transfer(address,uint256)": {
        "details": "See {IERC20-transfer}. Requirements: - `recipient` cannot be the zero address. - the caller must have a balance of at least `amount`."
      },
      "transferFrom(address,address,uint256)": {
        "details": "See {IERC20-transferFrom}. Emits an {Approval} event indicating the updated allowance. This is not required by the EIP. See the note at the beginning of {ERC20}. Requirements: - `sender` and `recipient` cannot be the zero address. - `sender` must have a balance of at least `amount`. - the caller must have allowance for ``sender``'s tokens of at least `amount`."
      },
      "transferOwnership(address)": {
        "details": "Transfers ownership of the contract to a new account (`newOwner`). Can only be called by the current owner."
      }
    },
    "version": 1
  },
  "userdoc": {
    "kind": "user",
    "methods": {
      "totalStakes()": {
        "notice": "A method to the aggregated stakes from all stakeholders."
      }
    },
    "version": 1
  }
}