{
  "contractName": "TrashtagDAPP",
  "abi": [
    {
      "anonymous": false,
      "inputs": [
        {
          "indexed": true,
          "internalType": "address",
          "name": "owner",
          "type": "address"
        },
        {
          "indexed": true,
          "internalType": "address",
          "name": "spender",
          "type": "address"
        },
        {
          "indexed": false,
          "internalType": "uint256",
          "name": "value",
          "type": "uint256"
        }
      ],
      "name": "Approval",
      "type": "event"
    },
    {
      "anonymous": false,
      "inputs": [
        {
          "indexed": true,
          "internalType": "address",
          "name": "account",
          "type": "address"
        },
        {
          "indexed": true,
          "internalType": "address",
          "name": "operator",
          "type": "address"
        },
        {
          "indexed": false,
          "internalType": "bool",
          "name": "approved",
          "type": "bool"
        }
      ],
      "name": "ApprovalForAll",
      "type": "event"
    },
    {
      "anonymous": false,
      "inputs": [
        {
          "indexed": true,
          "internalType": "address",
          "name": "previousOwner",
          "type": "address"
        },
        {
          "indexed": true,
          "internalType": "address",
          "name": "newOwner",
          "type": "address"
        }
      ],
      "name": "OwnershipTransferred",
      "type": "event"
    },
    {
      "anonymous": false,
      "inputs": [
        {
          "indexed": true,
          "internalType": "address",
          "name": "from",
          "type": "address"
        },
        {
          "indexed": true,
          "internalType": "address",
          "name": "to",
          "type": "address"
        },
        {
          "indexed": false,
          "internalType": "uint256",
          "name": "value",
          "type": "uint256"
        }
      ],
      "name": "Transfer",
      "type": "event"
    },
    {
      "anonymous": false,
      "inputs": [
        {
          "indexed": true,
          "internalType": "address",
          "name": "operator",
          "type": "address"
        },
        {
          "indexed": true,
          "internalType": "address",
          "name": "from",
          "type": "address"
        },
        {
          "indexed": true,
          "internalType": "address",
          "name": "to",
          "type": "address"
        },
        {
          "indexed": false,
          "internalType": "uint256[]",
          "name": "ids",
          "type": "uint256[]"
        },
        {
          "indexed": false,
          "internalType": "uint256[]",
          "name": "values",
          "type": "uint256[]"
        }
      ],
      "name": "TransferBatch",
      "type": "event"
    },
    {
      "anonymous": false,
      "inputs": [
        {
          "indexed": true,
          "internalType": "address",
          "name": "operator",
          "type": "address"
        },
        {
          "indexed": true,
          "internalType": "address",
          "name": "from",
          "type": "address"
        },
        {
          "indexed": true,
          "internalType": "address",
          "name": "to",
          "type": "address"
        },
        {
          "indexed": false,
          "internalType": "uint256",
          "name": "id",
          "type": "uint256"
        },
        {
          "indexed": false,
          "internalType": "uint256",
          "name": "value",
          "type": "uint256"
        }
      ],
      "name": "TransferSingle",
      "type": "event"
    },
    {
      "anonymous": false,
      "inputs": [
        {
          "indexed": false,
          "internalType": "string",
          "name": "value",
          "type": "string"
        },
        {
          "indexed": true,
          "internalType": "uint256",
          "name": "id",
          "type": "uint256"
        }
      ],
      "name": "URI",
      "type": "event"
    },
    {
      "inputs": [],
      "name": "GetForTest",
      "outputs": [],
      "stateMutability": "nonpayable",
      "type": "function"
    },
    {
      "inputs": [
        {
          "internalType": "address",
          "name": "owner",
          "type": "address"
        },
        {
          "internalType": "address",
          "name": "spender",
          "type": "address"
        }
      ],
      "name": "allowance",
      "outputs": [
        {
          "internalType": "uint256",
          "name": "",
          "type": "uint256"
        }
      ],
      "stateMutability": "view",
      "type": "function",
      "constant": true
    },
    {
      "inputs": [
        {
          "internalType": "address",
          "name": "spender",
          "type": "address"
        },
        {
          "internalType": "uint256",
          "name": "amount",
          "type": "uint256"
        }
      ],
      "name": "approve",
      "outputs": [
        {
          "internalType": "bool",
          "name": "",
          "type": "bool"
        }
      ],
      "stateMutability": "nonpayable",
      "type": "function"
    },
    {
      "inputs": [
        {
          "internalType": "address",
          "name": "account",
          "type": "address"
        },
        {
          "internalType": "uint256",
          "name": "id",
          "type": "uint256"
        }
      ],
      "name": "balanceOf",
      "outputs": [
        {
          "internalType": "uint256",
          "name": "",
          "type": "uint256"
        }
      ],
      "stateMutability": "view",
      "type": "function",
      "constant": true
    },
    {
      "inputs": [
        {
          "internalType": "address",
          "name": "account",
          "type": "address"
        }
      ],
      "name": "balanceOf",
      "outputs": [
        {
          "internalType": "uint256",
          "name": "",
          "type": "uint256"
        }
      ],
      "stateMutability": "view",
      "type": "function",
      "constant": true
    },
    {
      "inputs": [
        {
          "internalType": "address[]",
          "name": "accounts",
          "type": "address[]"
        },
        {
          "internalType": "uint256[]",
          "name": "ids",
          "type": "uint256[]"
        }
      ],
      "name": "balanceOfBatch",
      "outputs": [
        {
          "internalType": "uint256[]",
          "name": "",
          "type": "uint256[]"
        }
      ],
      "stateMutability": "view",
      "type": "function",
      "constant": true
    },
    {
      "inputs": [],
      "name": "becomeVerificator",
      "outputs": [],
      "stateMutability": "nonpayable",
      "type": "function"
    },
    {
      "inputs": [],
      "name": "decimals",
      "outputs": [
        {
          "internalType": "uint8",
          "name": "",
          "type": "uint8"
        }
      ],
      "stateMutability": "view",
      "type": "function",
      "constant": true
    },
    {
      "inputs": [
        {
          "internalType": "address",
          "name": "spender",
          "type": "address"
        },
        {
          "internalType": "uint256",
          "name": "subtractedValue",
          "type": "uint256"
        }
      ],
      "name": "decreaseAllowance",
      "outputs": [
        {
          "internalType": "bool",
          "name": "",
          "type": "bool"
        }
      ],
      "stateMutability": "nonpayable",
      "type": "function"
    },
    {
      "inputs": [
        {
          "internalType": "address",
          "name": "_receiver",
          "type": "address"
        }
      ],
      "name": "getAmountNFT",
      "outputs": [
        {
          "internalType": "uint256",
          "name": "",
          "type": "uint256"
        }
      ],
      "stateMutability": "view",
      "type": "function",
      "constant": true
    },
    {
      "inputs": [],
      "name": "getAmountReward",
      "outputs": [
        {
          "internalType": "uint256",
          "name": "",
          "type": "uint256"
        }
      ],
      "stateMutability": "view",
      "type": "function",
      "constant": true
    },
    {
      "inputs": [],
      "name": "getAmountVerifReward",
      "outputs": [
        {
          "internalType": "uint256",
          "name": "",
          "type": "uint256"
        }
      ],
      "stateMutability": "view",
      "type": "function",
      "constant": true
    },
    {
      "inputs": [],
      "name": "getAmountVerifStake",
      "outputs": [
        {
          "internalType": "uint256",
          "name": "",
          "type": "uint256"
        }
      ],
      "stateMutability": "view",
      "type": "function",
      "constant": true
    },
    {
      "inputs": [
        {
          "internalType": "uint256",
          "name": "_tokenId",
          "type": "uint256"
        }
      ],
      "name": "getURI",
      "outputs": [
        {
          "internalType": "string",
          "name": "",
          "type": "string"
        }
      ],
      "stateMutability": "view",
      "type": "function",
      "constant": true
    },
    {
      "inputs": [
        {
          "internalType": "address",
          "name": "spender",
          "type": "address"
        },
        {
          "internalType": "uint256",
          "name": "addedValue",
          "type": "uint256"
        }
      ],
      "name": "increaseAllowance",
      "outputs": [
        {
          "internalType": "bool",
          "name": "",
          "type": "bool"
        }
      ],
      "stateMutability": "nonpayable",
      "type": "function"
    },
    {
      "inputs": [
        {
          "internalType": "address",
          "name": "account",
          "type": "address"
        },
        {
          "internalType": "address",
          "name": "operator",
          "type": "address"
        }
      ],
      "name": "isApprovedForAll",
      "outputs": [
        {
          "internalType": "bool",
          "name": "",
          "type": "bool"
        }
      ],
      "stateMutability": "view",
      "type": "function",
      "constant": true
    },
    {
      "inputs": [],
      "name": "name",
      "outputs": [
        {
          "internalType": "string",
          "name": "",
          "type": "string"
        }
      ],
      "stateMutability": "view",
      "type": "function",
      "constant": true
    },
    {
      "inputs": [],
      "name": "owner",
      "outputs": [
        {
          "internalType": "address",
          "name": "",
          "type": "address"
        }
      ],
      "stateMutability": "view",
      "type": "function",
      "constant": true
    },
    {
      "inputs": [],
      "name": "renounceOwnership",
      "outputs": [],
      "stateMutability": "nonpayable",
      "type": "function"
    },
    {
      "inputs": [
        {
          "internalType": "string",
          "name": "_uri",
          "type": "string"
        },
        {
          "internalType": "address",
          "name": "_to",
          "type": "address"
        }
      ],
      "name": "rewardTrashtagWarrior",
      "outputs": [],
      "stateMutability": "nonpayable",
      "type": "function"
    },
    {
      "inputs": [
        {
          "internalType": "address",
          "name": "from",
          "type": "address"
        },
        {
          "internalType": "address",
          "name": "to",
          "type": "address"
        },
        {
          "internalType": "uint256[]",
          "name": "ids",
          "type": "uint256[]"
        },
        {
          "internalType": "uint256[]",
          "name": "amounts",
          "type": "uint256[]"
        },
        {
          "internalType": "bytes",
          "name": "data",
          "type": "bytes"
        }
      ],
      "name": "safeBatchTransferFrom",
      "outputs": [],
      "stateMutability": "nonpayable",
      "type": "function"
    },
    {
      "inputs": [
        {
          "internalType": "address",
          "name": "from",
          "type": "address"
        },
        {
          "internalType": "address",
          "name": "to",
          "type": "address"
        },
        {
          "internalType": "uint256",
          "name": "id",
          "type": "uint256"
        },
        {
          "internalType": "uint256",
          "name": "amount",
          "type": "uint256"
        },
        {
          "internalType": "bytes",
          "name": "data",
          "type": "bytes"
        }
      ],
      "name": "safeTransferFrom",
      "outputs": [],
      "stateMutability": "nonpayable",
      "type": "function"
    },
    {
      "inputs": [
        {
          "internalType": "address",
          "name": "operator",
          "type": "address"
        },
        {
          "internalType": "bool",
          "name": "approved",
          "type": "bool"
        }
      ],
      "name": "setApprovalForAll",
      "outputs": [],
      "stateMutability": "nonpayable",
      "type": "function"
    },
    {
      "inputs": [],
      "name": "stakeOf",
      "outputs": [
        {
          "internalType": "uint256",
          "name": "",
          "type": "uint256"
        }
      ],
      "stateMutability": "view",
      "type": "function",
      "constant": true
    },
    {
      "inputs": [
        {
          "internalType": "bytes4",
          "name": "interfaceId",
          "type": "bytes4"
        }
      ],
      "name": "supportsInterface",
      "outputs": [
        {
          "internalType": "bool",
          "name": "",
          "type": "bool"
        }
      ],
      "stateMutability": "view",
      "type": "function",
      "constant": true
    },
    {
      "inputs": [],
      "name": "symbol",
      "outputs": [
        {
          "internalType": "string",
          "name": "",
          "type": "string"
        }
      ],
      "stateMutability": "view",
      "type": "function",
      "constant": true
    },
    {
      "inputs": [],
      "name": "totalStakes",
      "outputs": [
        {
          "internalType": "uint256",
          "name": "",
          "type": "uint256"
        }
      ],
      "stateMutability": "view",
      "type": "function",
      "constant": true
    },
    {
      "inputs": [],
      "name": "totalSupply",
      "outputs": [
        {
          "internalType": "uint256",
          "name": "",
          "type": "uint256"
        }
      ],
      "stateMutability": "view",
      "type": "function",
      "constant": true
    },
    {
      "inputs": [
        {
          "internalType": "address",
          "name": "recipient",
          "type": "address"
        },
        {
          "internalType": "uint256",
          "name": "amount",
          "type": "uint256"
        }
      ],
      "name": "transfer",
      "outputs": [
        {
          "internalType": "bool",
          "name": "",
          "type": "bool"
        }
      ],
      "stateMutability": "nonpayable",
      "type": "function"
    },
    {
      "inputs": [
        {
          "internalType": "address",
          "name": "sender",
          "type": "address"
        },
        {
          "internalType": "address",
          "name": "recipient",
          "type": "address"
        },
        {
          "internalType": "uint256",
          "name": "amount",
          "type": "uint256"
        }
      ],
      "name": "transferFrom",
      "outputs": [
        {
          "internalType": "bool",
          "name": "",
          "type": "bool"
        }
      ],
      "stateMutability": "nonpayable",
      "type": "function"
    },
    {
      "inputs": [
        {
          "internalType": "address",
          "name": "newOwner",
          "type": "address"
        }
      ],
      "name": "transferOwnership",
      "outputs": [],
      "stateMutability": "nonpayable",
      "type": "function"
    },
    {
      "inputs": [
        {
          "internalType": "uint256",
          "name": "",
          "type": "uint256"
        }
      ],
      "name": "uri",
      "outputs": [
        {
          "internalType": "string",
          "name": "",
          "type": "string"
        }
      ],
      "stateMutability": "view",
      "type": "function",
      "constant": true
    },
    {
      "inputs": [],
      "name": "withdrawStake",
      "outputs": [],
      "stateMutability": "nonpayable",
      "type": "function"
    },
    {
      "inputs": [
        {
          "internalType": "string",
          "name": "_uri",
          "type": "string"
        },
        {
          "internalType": "address",
          "name": "_to",
          "type": "address"
        }
      ],
      "name": "NFTCreationForTest",
      "outputs": [],
      "stateMutability": "nonpayable",
      "type": "function"
    },
    {
      "inputs": [
        {
          "internalType": "string",
          "name": "_uri",
          "type": "string"
        }
      ],
      "name": "NeedToBeValidate",
      "outputs": [],
      "stateMutability": "nonpayable",
      "type": "function"
    },
    {
      "inputs": [],
      "name": "WaitingTobeValidate",
      "outputs": [
        {
          "internalType": "string",
          "name": "",
          "type": "string"
        }
      ],
      "stateMutability": "view",
      "type": "function",
      "constant": true
    },
    {
      "inputs": [],
      "name": "getWaitingList",
      "outputs": [
        {
          "internalType": "address",
          "name": "",
          "type": "address"
        }
      ],
      "stateMutability": "view",
      "type": "function",
      "constant": true
    },
    {
      "inputs": [
        {
          "internalType": "bool",
          "name": "_judgment",
          "type": "bool"
        }
      ],
      "name": "Verify",
      "outputs": [
        {
          "internalType": "bool",
          "name": "",
          "type": "bool"
        }
      ],
      "stateMutability": "nonpayable",
      "type": "function"
    }
  ],
  "bytecode": "0x60806040523480156200001157600080fd5b506040518060400160405280600781526020017f4a6f62436f696e000000000000000000000000000000000000000000000000008152506040518060400160405280600381526020017f4a42430000000000000000000000000000000000000000000000000000000000815250604051806020016040528060008152506200009f81620001b660201b60201c565b508160069080519060200190620000b892919062000345565b508060079080519060200190620000d192919062000345565b5050506000620000e6620001d260201b60201c565b905080600860006101000a81548173ffffffffffffffffffffffffffffffffffffffff021916908373ffffffffffffffffffffffffffffffffffffffff1602179055508073ffffffffffffffffffffffffffffffffffffffff16600073ffffffffffffffffffffffffffffffffffffffff167f8be0079c531659141344cd1fd0a4f28419497f9722a3daafe3b4186f6b6457e060405160405180910390a35062000198336000620001da60201b60201c565b6064600981905550600a80819055506103e8600b8190555062000593565b8060029080519060200190620001ce92919062000345565b5050565b600033905090565b600073ffffffffffffffffffffffffffffffffffffffff168273ffffffffffffffffffffffffffffffffffffffff1614156200024d576040517f08c379a0000000000000000000000000000000000000000000000000000000008152600401620002449062000448565b60405180910390fd5b62000261600083836200034060201b60201c565b806005600082825462000275919062000498565b9250508190555080600360008473ffffffffffffffffffffffffffffffffffffffff1673ffffffffffffffffffffffffffffffffffffffff1681526020019081526020016000206000828254620002cd919062000498565b925050819055508173ffffffffffffffffffffffffffffffffffffffff16600073ffffffffffffffffffffffffffffffffffffffff167fddf252ad1be2c89b69c2b068fc378daa952ba7f163c4a11628f55a4df523b3ef836040516200033491906200046a565b60405180910390a35050565b505050565b8280546200035390620004ff565b90600052602060002090601f016020900481019282620003775760008555620003c3565b82601f106200039257805160ff1916838001178555620003c3565b82800160010185558215620003c3579182015b82811115620003c2578251825591602001919060010190620003a5565b5b509050620003d29190620003d6565b5090565b5b80821115620003f1576000816000905550600101620003d7565b5090565b600062000404601f8362000487565b91507f45524332303a206d696e7420746f20746865207a65726f2061646472657373006000830152602082019050919050565b6200044281620004f5565b82525050565b600060208201905081810360008301526200046381620003f5565b9050919050565b600060208201905062000481600083018462000437565b92915050565b600082825260208201905092915050565b6000620004a582620004f5565b9150620004b283620004f5565b9250827fffffffffffffffffffffffffffffffffffffffffffffffffffffffffffffffff03821115620004ea57620004e962000535565b5b828201905092915050565b6000819050919050565b600060028204905060018216806200051857607f821691505b602082108114156200052f576200052e62000564565b5b50919050565b7f4e487b7100000000000000000000000000000000000000000000000000000000600052601160045260246000fd5b7f4e487b7100000000000000000000000000000000000000000000000000000000600052602260045260246000fd5b615c3180620005a36000396000f3fe608060405234801561001057600080fd5b50600436106102315760003560e01c80638d333c9111610130578063bf9befb1116100b8578063e3421c601161007c578063e3421c60146106cc578063e985e9c5146106e8578063f242432a14610718578063f2fde38b14610734578063fe1601811461075057610231565b8063bf9befb114610626578063bfd8f44514610644578063d6960d121461064e578063d7a3dff51461066c578063dd62ed3e1461069c57610231565b8063a22cb465116100ff578063a22cb46514610582578063a457c2d71461059e578063a9059cbb146105ce578063bdde8528146105fe578063bed9d8611461061c57610231565b80638d333c91146104fa5780638da5cb5b1461051657806395d89b4114610534578063a0c1fc381461055257610231565b80632eb2c2d6116101be57806368604d731161018257806368604d731461046857806370a0823114610484578063715018a6146104b457806379107e1d146104be57806389ba217f146104dc57610231565b80632eb2c2d6146103b0578063313ce567146103cc57806339509351146103ea5780634e1273f41461041a578063588922261461044a57610231565b8063095ea7b311610205578063095ea7b3146102d25780630e89341c1461030257806318160ddd146103325780631aa347dc1461035057806323b872dd1461038057610231565b8062fdd58e1461023657806301ffc9a71461026657806306fdde0314610296578063078d8cf8146102b4575b600080fd5b610250600480360381019061024b91906143b2565b61075a565b60405161025d91906155c7565b60405180910390f35b610280600480360381019061027b9190614483565b610823565b60405161028d919061522a565b60405180910390f35b61029e610905565b6040516102ab9190615245565b60405180910390f35b6102bc610997565b6040516102c991906150f4565b60405180910390f35b6102ec60048036038101906102e791906143b2565b610ac2565b6040516102f9919061522a565b60405180910390f35b61031c6004803603810190610317919061456e565b610ae0565b6040516103299190615245565b60405180910390f35b61033a610b74565b60405161034791906155c7565b60405180910390f35b61036a6004803603810190610365919061456e565b610b7e565b6040516103779190615245565b60405180910390f35b61039a60048036038101906103959190614298565b610c66565b6040516103a7919061522a565b60405180910390f35b6103ca60048036038101906103c591906141d9565b610d67565b005b6103d461115d565b6040516103e1919061560b565b60405180910390f35b61040460048036038101906103ff91906143b2565b611166565b604051610411919061522a565b60405180910390f35b610434600480360381019061042f91906143ee565b611212565b60405161044191906151d1565b60405180910390f35b6104526113c3565b60405161045f91906155c7565b60405180910390f35b610482600480360381019061047d91906144d5565b6113cd565b005b61049e60048036038101906104999190614174565b611472565b6040516104ab91906155c7565b60405180910390f35b6104bc6114bb565b005b6104c66115f8565b6040516104d39190615245565b60405180910390f35b6104e46117ba565b6040516104f191906155c7565b60405180910390f35b610514600480360381019061050f919061451a565b6117c4565b005b61051e6118e3565b60405161052b91906150f4565b60405180910390f35b61053c61190d565b6040516105499190615245565b60405180910390f35b61056c6004803603810190610567919061445a565b61199f565b604051610579919061522a565b60405180910390f35b61059c60048036038101906105979190614376565b611e2b565b005b6105b860048036038101906105b391906143b2565b611fac565b6040516105c5919061522a565b60405180910390f35b6105e860048036038101906105e391906143b2565b6120a0565b6040516105f5919061522a565b60405180910390f35b6106066120be565b60405161061391906155c7565b60405180910390f35b6106246120c8565b005b61062e612185565b60405161063b91906155c7565b60405180910390f35b61064c612270565b005b61065661227e565b60405161066391906155c7565b60405180910390f35b61068660048036038101906106819190614174565b61231a565b60405161069391906155c7565b60405180910390f35b6106b660048036038101906106b1919061419d565b612363565b6040516106c391906155c7565b60405180910390f35b6106e660048036038101906106e1919061451a565b6123ea565b005b61070260048036038101906106fd919061419d565b612401565b60405161070f919061522a565b60405180910390f35b610732600480360381019061072d91906142e7565b612495565b005b61074e60048036038101906107499190614174565b6127ad565b005b610758612959565b005b60008073ffffffffffffffffffffffffffffffffffffffff168373ffffffffffffffffffffffffffffffffffffffff1614156107cb576040517f08c379a00000000000000000000000000000000000000000000000000000000081526004016107c2906152e7565b60405180910390fd5b60008083815260200190815260200160002060008473ffffffffffffffffffffffffffffffffffffffff1673ffffffffffffffffffffffffffffffffffffffff16815260200190815260200160002054905092915050565b60007fd9b67a26000000000000000000000000000000000000000000000000000000007bffffffffffffffffffffffffffffffffffffffffffffffffffffffff1916827bffffffffffffffffffffffffffffffffffffffffffffffffffffffff191614806108ee57507f0e89341c000000000000000000000000000000000000000000000000000000007bffffffffffffffffffffffffffffffffffffffffffffffffffffffff1916827bffffffffffffffffffffffffffffffffffffffffffffffffffffffff1916145b806108fe57506108fd82612aa0565b5b9050919050565b6060600680546109149061597a565b80601f01602080910402602001604051908101604052809291908181526020018280546109409061597a565b801561098d5780601f106109625761010080835404028352916020019161098d565b820191906000526020600020905b81548152906001019060200180831161097057829003601f168201915b5050505050905090565b6000806109a333612b0a565b50905060011515811515146109ed576040517f08c379a00000000000000000000000000000000000000000000000000000000081526004016109e490615407565b60405180910390fd5b6000601360003373ffffffffffffffffffffffffffffffffffffffff1673ffffffffffffffffffffffffffffffffffffffff1681526020019081526020016000205490506000601180549050905080821015610ab757600060118381548110610a7f577f4e487b7100000000000000000000000000000000000000000000000000000000600052603260045260246000fd5b9060005260206000200160009054906101000a900473ffffffffffffffffffffffffffffffffffffffff169050809450505050610abe565b6000935050505b5090565b6000610ad6610acf612be1565b8484612be9565b6001905092915050565b606060028054610aef9061597a565b80601f0160208091040260200160405190810160405280929190818152602001828054610b1b9061597a565b8015610b685780601f10610b3d57610100808354040283529160200191610b68565b820191906000526020600020905b815481529060010190602001808311610b4b57829003601f168201915b50505050509050919050565b6000600554905090565b60606000600e60003373ffffffffffffffffffffffffffffffffffffffff1673ffffffffffffffffffffffffffffffffffffffff16815260200190815260200160002060008481526020019081526020016000208054610bdd9061597a565b80601f0160208091040260200160405190810160405280929190818152602001828054610c099061597a565b8015610c565780601f10610c2b57610100808354040283529160200191610c56565b820191906000526020600020905b815481529060010190602001808311610c3957829003601f168201915b5050505050905080915050919050565b6000610c73848484612db4565b6000600460008673ffffffffffffffffffffffffffffffffffffffff1673ffffffffffffffffffffffffffffffffffffffff1681526020019081526020016000206000610cbe612be1565b73ffffffffffffffffffffffffffffffffffffffff1673ffffffffffffffffffffffffffffffffffffffff16815260200190815260200160002054905082811015610d3e576040517f08c379a0000000000000000000000000000000000000000000000000000000008152600401610d3590615447565b60405180910390fd5b610d5b85610d4a612be1565b8584610d569190615830565b612be9565b60019150509392505050565b8151835114610dab576040517f08c379a0000000000000000000000000000000000000000000000000000000008152600401610da290615547565b60405180910390fd5b600073ffffffffffffffffffffffffffffffffffffffff168473ffffffffffffffffffffffffffffffffffffffff161415610e1b576040517f08c379a0000000000000000000000000000000000000000000000000000000008152600401610e12906153c7565b60405180910390fd5b610e23612be1565b73ffffffffffffffffffffffffffffffffffffffff168573ffffffffffffffffffffffffffffffffffffffff161480610e695750610e6885610e63612be1565b612401565b5b610ea8576040517f08c379a0000000000000000000000000000000000000000000000000000000008152600401610e9f906153e7565b60405180910390fd5b6000610eb2612be1565b9050610ec2818787878787613036565b60005b84518110156110c8576000858281518110610f09577f4e487b7100000000000000000000000000000000000000000000000000000000600052603260045260246000fd5b602002602001015190506000858381518110610f4e577f4e487b7100000000000000000000000000000000000000000000000000000000600052603260045260246000fd5b60200260200101519050600080600084815260200190815260200160002060008b73ffffffffffffffffffffffffffffffffffffffff1673ffffffffffffffffffffffffffffffffffffffff16815260200190815260200160002054905081811015610fef576040517f08c379a0000000000000000000000000000000000000000000000000000000008152600401610fe690615427565b60405180910390fd5b8181610ffb9190615830565b60008085815260200190815260200160002060008c73ffffffffffffffffffffffffffffffffffffffff1673ffffffffffffffffffffffffffffffffffffffff168152602001908152602001600020819055508160008085815260200190815260200160002060008b73ffffffffffffffffffffffffffffffffffffffff1673ffffffffffffffffffffffffffffffffffffffff16815260200190815260200160002060008282546110ad9190615780565b92505081905550505050806110c1906159f5565b9050610ec5565b508473ffffffffffffffffffffffffffffffffffffffff168673ffffffffffffffffffffffffffffffffffffffff168273ffffffffffffffffffffffffffffffffffffffff167f4a39dc06d4c0dbc64b70af90fd698a233a518aa5d07e595d983b8c0526c8f7fb878760405161113f9291906151f3565b60405180910390a461115581878787878761303e565b505050505050565b60006012905090565b6000611208611173612be1565b848460046000611181612be1565b73ffffffffffffffffffffffffffffffffffffffff1673ffffffffffffffffffffffffffffffffffffffff16815260200190815260200160002060008873ffffffffffffffffffffffffffffffffffffffff1673ffffffffffffffffffffffffffffffffffffffff168152602001908152602001600020546112039190615780565b612be9565b6001905092915050565b60608151835114611258576040517f08c379a000000000000000000000000000000000000000000000000000000000815260040161124f90615507565b60405180910390fd5b6000835167ffffffffffffffff81111561129b577f4e487b7100000000000000000000000000000000000000000000000000000000600052604160045260246000fd5b6040519080825280602002602001820160405280156112c95781602001602082028036833780820191505090505b50905060005b84518110156113b857611362858281518110611314577f4e487b7100000000000000000000000000000000000000000000000000000000600052603260045260246000fd5b6020026020010151858381518110611355577f4e487b7100000000000000000000000000000000000000000000000000000000600052603260045260246000fd5b602002602001015161075a565b82828151811061139b577f4e487b7100000000000000000000000000000000000000000000000000000000600052603260045260246000fd5b602002602001018181525050806113b1906159f5565b90506112cf565b508091505092915050565b6000600954905090565b6011339080600181540180825580915050600190039060005260206000200160009091909190916101000a81548173ffffffffffffffffffffffffffffffffffffffff021916908373ffffffffffffffffffffffffffffffffffffffff160217905550601282829091806001815401808255809150506001900390600052602060002001600090919290919290919290919250919061146d929190613d9c565b505050565b6000600360008373ffffffffffffffffffffffffffffffffffffffff1673ffffffffffffffffffffffffffffffffffffffff168152602001908152602001600020549050919050565b6114c3612be1565b73ffffffffffffffffffffffffffffffffffffffff166114e16118e3565b73ffffffffffffffffffffffffffffffffffffffff1614611537576040517f08c379a000000000000000000000000000000000000000000000000000000000815260040161152e90615467565b60405180910390fd5b600073ffffffffffffffffffffffffffffffffffffffff16600860009054906101000a900473ffffffffffffffffffffffffffffffffffffffff1673ffffffffffffffffffffffffffffffffffffffff167f8be0079c531659141344cd1fd0a4f28419497f9722a3daafe3b4186f6b6457e060405160405180910390a36000600860006101000a81548173ffffffffffffffffffffffffffffffffffffffff021916908373ffffffffffffffffffffffffffffffffffffffff160217905550565b6060600061160533612b0a565b509050600115158115151461164f576040517f08c379a000000000000000000000000000000000000000000000000000000000815260040161164690615407565b60405180910390fd5b6000601360003373ffffffffffffffffffffffffffffffffffffffff1673ffffffffffffffffffffffffffffffffffffffff168152602001908152602001600020549050600060118054905090508082101561177b57601282815481106116df577f4e487b7100000000000000000000000000000000000000000000000000000000600052603260045260246000fd5b9060005260206000200180546116f49061597a565b80601f01602080910402602001604051908101604052809291908181526020018280546117209061597a565b801561176d5780601f106117425761010080835404028352916020019161176d565b820191906000526020600020905b81548152906001019060200180831161175057829003601f168201915b5050505050935050506117b6565b6040518060400160405280600181526020017f3000000000000000000000000000000000000000000000000000000000000000815250935050505b5090565b6000600b54905090565b600f60008273ffffffffffffffffffffffffffffffffffffffff1673ffffffffffffffffffffffffffffffffffffffff1681526020019081526020016000206000815480929190611814906159f5565b91905055506000600f60008373ffffffffffffffffffffffffffffffffffffffff1673ffffffffffffffffffffffffffffffffffffffff16815260200190815260200160002054905082600e60008473ffffffffffffffffffffffffffffffffffffffff1673ffffffffffffffffffffffffffffffffffffffff168152602001908152602001600020600083815260200190815260200160002090805190602001906118c1929190613e22565b506118de828260016040518060200160405280600081525061320e565b505050565b6000600860009054906101000a900473ffffffffffffffffffffffffffffffffffffffff16905090565b60606007805461191c9061597a565b80601f01602080910402602001604051908101604052809291908181526020018280546119489061597a565b80156119955780601f1061196a57610100808354040283529160200191611995565b820191906000526020600020905b81548152906001019060200180831161197857829003601f168201915b5050505050905090565b6000806119ab33612b0a565b50905060011515811515146119f5576040517f08c379a00000000000000000000000000000000000000000000000000000000081526004016119ec90615407565b60405180910390fd5b6000601360003373ffffffffffffffffffffffffffffffffffffffff1673ffffffffffffffffffffffffffffffffffffffff168152602001908152602001600020549050601180549050811015611e1f57600060118281548110611a82577f4e487b7100000000000000000000000000000000000000000000000000000000600052603260045260246000fd5b9060005260206000200160009054906101000a900473ffffffffffffffffffffffffffffffffffffffff169050601360003373ffffffffffffffffffffffffffffffffffffffff1673ffffffffffffffffffffffffffffffffffffffff1681526020019081526020016000206000815480929190611aff906159f5565b91905055506000611b0f8261231a565b90508080611b1c906159f5565b9150508515611d2657601560008373ffffffffffffffffffffffffffffffffffffffff1673ffffffffffffffffffffffffffffffffffffffff16815260200190815260200160002060008281526020019081526020016000206000815480929190611b86906159ac565b91905055506000601560008473ffffffffffffffffffffffffffffffffffffffff1673ffffffffffffffffffffffffffffffffffffffff16815260200190815260200160002060008381526020019081526020016000205490506005811415611ccf57600060128581548110611c25577f4e487b7100000000000000000000000000000000000000000000000000000000600052603260045260246000fd5b906000526020600020018054611c3a9061597a565b80601f0160208091040260200160405190810160405280929190818152602001828054611c669061597a565b8015611cb35780601f10611c8857610100808354040283529160200191611cb3565b820191906000526020600020905b815481529060010190602001808311611c9657829003601f168201915b50505050509050611cc481856133a4565b611ccd336133bb565b505b6008811480611cde5750600e81145b15611cf157611cec336133bb565b611d24565b7ffffffffffffffffffffffffffffffffffffffffffffffffffffffffffffffff6811215611d2357611d223361346b565b5b5b505b85611e1357601560008373ffffffffffffffffffffffffffffffffffffffff1673ffffffffffffffffffffffffffffffffffffffff16815260200190815260200160002060008281526020019081526020016000206000815480929190611d8c90615931565b91905055506000601560008473ffffffffffffffffffffffffffffffffffffffff1673ffffffffffffffffffffffffffffffffffffffff16815260200190815260200160002060008381526020019081526020016000205490506005811315611dfd57611df83361346b565b611e11565b6014811215611e1057611e0f336133bb565b5b5b505b60019450505050611e25565b60009250505b50919050565b8173ffffffffffffffffffffffffffffffffffffffff16611e4a612be1565b73ffffffffffffffffffffffffffffffffffffffff161415611ea1576040517f08c379a0000000000000000000000000000000000000000000000000000000008152600401611e98906154e7565b60405180910390fd5b8060016000611eae612be1565b73ffffffffffffffffffffffffffffffffffffffff1673ffffffffffffffffffffffffffffffffffffffff16815260200190815260200160002060008473ffffffffffffffffffffffffffffffffffffffff1673ffffffffffffffffffffffffffffffffffffffff16815260200190815260200160002060006101000a81548160ff0219169083151502179055508173ffffffffffffffffffffffffffffffffffffffff16611f5b612be1565b73ffffffffffffffffffffffffffffffffffffffff167f17307eab39ab6107e8899845ad3d59bd9653f200f220920489ca2b5937696c3183604051611fa0919061522a565b60405180910390a35050565b60008060046000611fbb612be1565b73ffffffffffffffffffffffffffffffffffffffff1673ffffffffffffffffffffffffffffffffffffffff16815260200190815260200160002060008573ffffffffffffffffffffffffffffffffffffffff1673ffffffffffffffffffffffffffffffffffffffff16815260200190815260200160002054905082811015612078576040517f08c379a000000000000000000000000000000000000000000000000000000000815260040161206f90615587565b60405180910390fd5b612095612083612be1565b8585846120909190615830565b612be9565b600191505092915050565b60006120b46120ad612be1565b8484612db4565b6001905092915050565b6000600a54905090565b60006120d333612b0a565b509050600115158115151461211d576040517f08c379a000000000000000000000000000000000000000000000000000000000815260040161211490615347565b60405180910390fd5b600061212761227e565b905061213233613576565b6000600d60003373ffffffffffffffffffffffffffffffffffffffff1673ffffffffffffffffffffffffffffffffffffffff1681526020019081526020016000208190555061218133826136f7565b5050565b6000806000905060005b600c8054905081101561226857612252600d6000600c84815481106121dd577f4e487b7100000000000000000000000000000000000000000000000000000000600052603260045260246000fd5b9060005260206000200160009054906101000a900473ffffffffffffffffffffffffffffffffffffffff1673ffffffffffffffffffffffffffffffffffffffff1673ffffffffffffffffffffffffffffffffffffffff168152602001908152602001600020548361384c90919063ffffffff16565b91506001816122619190615780565b905061218f565b508091505090565b61227c336103e86136f7565b565b60008061228a33612b0a565b50905060011515811515146122d4576040517f08c379a00000000000000000000000000000000000000000000000000000000081526004016122cb90615527565b60405180910390fd5b600d60003373ffffffffffffffffffffffffffffffffffffffff1673ffffffffffffffffffffffffffffffffffffffff1681526020019081526020016000205491505090565b6000600f60008373ffffffffffffffffffffffffffffffffffffffff1673ffffffffffffffffffffffffffffffffffffffff168152602001908152602001600020549050919050565b6000600460008473ffffffffffffffffffffffffffffffffffffffff1673ffffffffffffffffffffffffffffffffffffffff16815260200190815260200160002060008373ffffffffffffffffffffffffffffffffffffffff1673ffffffffffffffffffffffffffffffffffffffff16815260200190815260200160002054905092915050565b6123f482826117c4565b6123fd81613862565b5050565b6000600160008473ffffffffffffffffffffffffffffffffffffffff1673ffffffffffffffffffffffffffffffffffffffff16815260200190815260200160002060008373ffffffffffffffffffffffffffffffffffffffff1673ffffffffffffffffffffffffffffffffffffffff16815260200190815260200160002060009054906101000a900460ff16905092915050565b600073ffffffffffffffffffffffffffffffffffffffff168473ffffffffffffffffffffffffffffffffffffffff161415612505576040517f08c379a00000000000000000000000000000000000000000000000000000000081526004016124fc906153c7565b60405180910390fd5b61250d612be1565b73ffffffffffffffffffffffffffffffffffffffff168573ffffffffffffffffffffffffffffffffffffffff16148061255357506125528561254d612be1565b612401565b5b612592576040517f08c379a000000000000000000000000000000000000000000000000000000000815260040161258990615367565b60405180910390fd5b600061259c612be1565b90506125bc8187876125ad88613871565b6125b688613871565b87613036565b600080600086815260200190815260200160002060008873ffffffffffffffffffffffffffffffffffffffff1673ffffffffffffffffffffffffffffffffffffffff16815260200190815260200160002054905083811015612653576040517f08c379a000000000000000000000000000000000000000000000000000000000815260040161264a90615427565b60405180910390fd5b838161265f9190615830565b60008087815260200190815260200160002060008973ffffffffffffffffffffffffffffffffffffffff1673ffffffffffffffffffffffffffffffffffffffff168152602001908152602001600020819055508360008087815260200190815260200160002060008873ffffffffffffffffffffffffffffffffffffffff1673ffffffffffffffffffffffffffffffffffffffff16815260200190815260200160002060008282546127119190615780565b925050819055508573ffffffffffffffffffffffffffffffffffffffff168773ffffffffffffffffffffffffffffffffffffffff168373ffffffffffffffffffffffffffffffffffffffff167fc3d58168c5ae7397731d063d5bbf3d657854427343f4c083240f7aacaa2d0f62888860405161278e9291906155e2565b60405180910390a46127a4828888888888613937565b50505050505050565b6127b5612be1565b73ffffffffffffffffffffffffffffffffffffffff166127d36118e3565b73ffffffffffffffffffffffffffffffffffffffff1614612829576040517f08c379a000000000000000000000000000000000000000000000000000000000815260040161282090615467565b60405180910390fd5b600073ffffffffffffffffffffffffffffffffffffffff168173ffffffffffffffffffffffffffffffffffffffff161415612899576040517f08c379a000000000000000000000000000000000000000000000000000000000815260040161289090615307565b60405180910390fd5b8073ffffffffffffffffffffffffffffffffffffffff16600860009054906101000a900473ffffffffffffffffffffffffffffffffffffffff1673ffffffffffffffffffffffffffffffffffffffff167f8be0079c531659141344cd1fd0a4f28419497f9722a3daafe3b4186f6b6457e060405160405180910390a380600860006101000a81548173ffffffffffffffffffffffffffffffffffffffff021916908373ffffffffffffffffffffffffffffffffffffffff16021790555050565b600061296433612b0a565b50905080156129a8576040517f08c379a000000000000000000000000000000000000000000000000000000000815260040161299f906153a7565b60405180910390fd5b6129b433600b54613b07565b6000600d60003373ffffffffffffffffffffffffffffffffffffffff1673ffffffffffffffffffffffffffffffffffffffff168152602001908152602001600020541415612a0657612a0533613cdd565b5b612a5a600b54600d60003373ffffffffffffffffffffffffffffffffffffffff1673ffffffffffffffffffffffffffffffffffffffff1681526020019081526020016000205461384c90919063ffffffff16565b600d60003373ffffffffffffffffffffffffffffffffffffffff1673ffffffffffffffffffffffffffffffffffffffff1681526020019081526020016000208190555050565b60007f01ffc9a7000000000000000000000000000000000000000000000000000000007bffffffffffffffffffffffffffffffffffffffffffffffffffffffff1916827bffffffffffffffffffffffffffffffffffffffffffffffffffffffff1916149050919050565b600080600090505b600c80549050811015612bd457600c8181548110612b59577f4e487b7100000000000000000000000000000000000000000000000000000000600052603260045260246000fd5b9060005260206000200160009054906101000a900473ffffffffffffffffffffffffffffffffffffffff1673ffffffffffffffffffffffffffffffffffffffff168373ffffffffffffffffffffffffffffffffffffffff161415612bc05760019150612bdc565b600181612bcd9190615780565b9050612b12565b600080915091505b915091565b600033905090565b600073ffffffffffffffffffffffffffffffffffffffff168373ffffffffffffffffffffffffffffffffffffffff161415612c59576040517f08c379a0000000000000000000000000000000000000000000000000000000008152600401612c50906154c7565b60405180910390fd5b600073ffffffffffffffffffffffffffffffffffffffff168273ffffffffffffffffffffffffffffffffffffffff161415612cc9576040517f08c379a0000000000000000000000000000000000000000000000000000000008152600401612cc090615327565b60405180910390fd5b80600460008573ffffffffffffffffffffffffffffffffffffffff1673ffffffffffffffffffffffffffffffffffffffff16815260200190815260200160002060008473ffffffffffffffffffffffffffffffffffffffff1673ffffffffffffffffffffffffffffffffffffffff168152602001908152602001600020819055508173ffffffffffffffffffffffffffffffffffffffff168373ffffffffffffffffffffffffffffffffffffffff167f8c5be1e5ebec7d5bd14f71427d1e84f3dd0314c0f7b2291e5b200ac8c7c3b92583604051612da791906155c7565b60405180910390a3505050565b600073ffffffffffffffffffffffffffffffffffffffff168373ffffffffffffffffffffffffffffffffffffffff161415612e24576040517f08c379a0000000000000000000000000000000000000000000000000000000008152600401612e1b906154a7565b60405180910390fd5b600073ffffffffffffffffffffffffffffffffffffffff168273ffffffffffffffffffffffffffffffffffffffff161415612e94576040517f08c379a0000000000000000000000000000000000000000000000000000000008152600401612e8b90615287565b60405180910390fd5b612e9f838383613d58565b6000600360008573ffffffffffffffffffffffffffffffffffffffff1673ffffffffffffffffffffffffffffffffffffffff16815260200190815260200160002054905081811015612f26576040517f08c379a0000000000000000000000000000000000000000000000000000000008152600401612f1d90615387565b60405180910390fd5b8181612f329190615830565b600360008673ffffffffffffffffffffffffffffffffffffffff1673ffffffffffffffffffffffffffffffffffffffff1681526020019081526020016000208190555081600360008573ffffffffffffffffffffffffffffffffffffffff1673ffffffffffffffffffffffffffffffffffffffff1681526020019081526020016000206000828254612fc49190615780565b925050819055508273ffffffffffffffffffffffffffffffffffffffff168473ffffffffffffffffffffffffffffffffffffffff167fddf252ad1be2c89b69c2b068fc378daa952ba7f163c4a11628f55a4df523b3ef8460405161302891906155c7565b60405180910390a350505050565b505050505050565b61305d8473ffffffffffffffffffffffffffffffffffffffff16613d5d565b15613206578373ffffffffffffffffffffffffffffffffffffffff1663bc197c8187878686866040518663ffffffff1660e01b81526004016130a395949392919061510f565b602060405180830381600087803b1580156130bd57600080fd5b505af19250505080156130ee57506040513d601f19601f820116820180604052508101906130eb91906144ac565b60015b61317d576130fa615ae9565b806131055750613142565b806040517f08c379a00000000000000000000000000000000000000000000000000000000081526004016131399190615245565b60405180910390fd5b6040517f08c379a000000000000000000000000000000000000000000000000000000000815260040161317490615267565b60405180910390fd5b63bc197c8160e01b7bffffffffffffffffffffffffffffffffffffffffffffffffffffffff1916817bffffffffffffffffffffffffffffffffffffffffffffffffffffffff191614613204576040517f08c379a00000000000000000000000000000000000000000000000000000000081526004016131fb906152a7565b60405180910390fd5b505b505050505050565b600073ffffffffffffffffffffffffffffffffffffffff168473ffffffffffffffffffffffffffffffffffffffff16141561327e576040517f08c379a000000000000000000000000000000000000000000000000000000000815260040161327590615567565b60405180910390fd5b6000613288612be1565b90506132a98160008761329a88613871565b6132a388613871565b87613036565b8260008086815260200190815260200160002060008773ffffffffffffffffffffffffffffffffffffffff1673ffffffffffffffffffffffffffffffffffffffff16815260200190815260200160002060008282546133089190615780565b925050819055508473ffffffffffffffffffffffffffffffffffffffff16600073ffffffffffffffffffffffffffffffffffffffff168273ffffffffffffffffffffffffffffffffffffffff167fc3d58168c5ae7397731d063d5bbf3d657854427343f4c083240f7aacaa2d0f6287876040516133869291906155e2565b60405180910390a461339d81600087878787613937565b5050505050565b6133ae82826117c4565b6133b781613862565b5050565b60006133c682612b0a565b509050801561346757613423600a54600d60008573ffffffffffffffffffffffffffffffffffffffff1673ffffffffffffffffffffffffffffffffffffffff1681526020019081526020016000205461384c90919063ffffffff16565b600d60008473ffffffffffffffffffffffffffffffffffffffff1673ffffffffffffffffffffffffffffffffffffffff168152602001908152602001600020819055505b5050565b600061347682612b0a565b5090508015613572576000600d60008473ffffffffffffffffffffffffffffffffffffffff1673ffffffffffffffffffffffffffffffffffffffff16815260200190815260200160002054106135715761352d6134df6002600a54613d7090919063ffffffff16565b600d60008573ffffffffffffffffffffffffffffffffffffffff1673ffffffffffffffffffffffffffffffffffffffff16815260200190815260200160002054613d8690919063ffffffff16565b600d60008473ffffffffffffffffffffffffffffffffffffffff1673ffffffffffffffffffffffffffffffffffffffff168152602001908152602001600020819055505b5b5050565b60008061358283612b0a565b9150915081156136f257600c6001600c805490506135a09190615830565b815481106135d7577f4e487b7100000000000000000000000000000000000000000000000000000000600052603260045260246000fd5b9060005260206000200160009054906101000a900473ffffffffffffffffffffffffffffffffffffffff16600c828154811061363c577f4e487b7100000000000000000000000000000000000000000000000000000000600052603260045260246000fd5b9060005260206000200160006101000a81548173ffffffffffffffffffffffffffffffffffffffff021916908373ffffffffffffffffffffffffffffffffffffffff160217905550600c8054806136bc577f4e487b7100000000000000000000000000000000000000000000000000000000600052603160045260246000fd5b6001900381819060005260206000200160006101000a81549073ffffffffffffffffffffffffffffffffffffffff021916905590555b505050565b600073ffffffffffffffffffffffffffffffffffffffff168273ffffffffffffffffffffffffffffffffffffffff161415613767576040517f08c379a000000000000000000000000000000000000000000000000000000000815260040161375e906155a7565b60405180910390fd5b61377360008383613d58565b80600560008282546137859190615780565b9250508190555080600360008473ffffffffffffffffffffffffffffffffffffffff1673ffffffffffffffffffffffffffffffffffffffff16815260200190815260200160002060008282546137db9190615780565b925050819055508173ffffffffffffffffffffffffffffffffffffffff16600073ffffffffffffffffffffffffffffffffffffffff167fddf252ad1be2c89b69c2b068fc378daa952ba7f163c4a11628f55a4df523b3ef8360405161384091906155c7565b60405180910390a35050565b6000818361385a9190615780565b905092915050565b61386e816009546136f7565b50565b60606000600167ffffffffffffffff8111156138b6577f4e487b7100000000000000000000000000000000000000000000000000000000600052604160045260246000fd5b6040519080825280602002602001820160405280156138e45781602001602082028036833780820191505090505b5090508281600081518110613922577f4e487b7100000000000000000000000000000000000000000000000000000000600052603260045260246000fd5b60200260200101818152505080915050919050565b6139568473ffffffffffffffffffffffffffffffffffffffff16613d5d565b15613aff578373ffffffffffffffffffffffffffffffffffffffff1663f23a6e6187878686866040518663ffffffff1660e01b815260040161399c959493929190615177565b602060405180830381600087803b1580156139b657600080fd5b505af19250505080156139e757506040513d601f19601f820116820180604052508101906139e491906144ac565b60015b613a76576139f3615ae9565b806139fe5750613a3b565b806040517f08c379a0000000000000000000000000000000000000000000000000000000008152600401613a329190615245565b60405180910390fd5b6040517f08c379a0000000000000000000000000000000000000000000000000000000008152600401613a6d90615267565b60405180910390fd5b63f23a6e6160e01b7bffffffffffffffffffffffffffffffffffffffffffffffffffffffff1916817bffffffffffffffffffffffffffffffffffffffffffffffffffffffff191614613afd576040517f08c379a0000000000000000000000000000000000000000000000000000000008152600401613af4906152a7565b60405180910390fd5b505b505050505050565b600073ffffffffffffffffffffffffffffffffffffffff168273ffffffffffffffffffffffffffffffffffffffff161415613b77576040517f08c379a0000000000000000000000000000000000000000000000000000000008152600401613b6e90615487565b60405180910390fd5b613b8382600083613d58565b6000600360008473ffffffffffffffffffffffffffffffffffffffff1673ffffffffffffffffffffffffffffffffffffffff16815260200190815260200160002054905081811015613c0a576040517f08c379a0000000000000000000000000000000000000000000000000000000008152600401613c01906152c7565b60405180910390fd5b8181613c169190615830565b600360008573ffffffffffffffffffffffffffffffffffffffff1673ffffffffffffffffffffffffffffffffffffffff168152602001908152602001600020819055508160056000828254613c6b9190615830565b92505081905550600073ffffffffffffffffffffffffffffffffffffffff168373ffffffffffffffffffffffffffffffffffffffff167fddf252ad1be2c89b69c2b068fc378daa952ba7f163c4a11628f55a4df523b3ef84604051613cd091906155c7565b60405180910390a3505050565b6000613ce882612b0a565b50905080613d5457600c829080600181540180825580915050600190039060005260206000200160009091909190916101000a81548173ffffffffffffffffffffffffffffffffffffffff021916908373ffffffffffffffffffffffffffffffffffffffff1602179055505b5050565b505050565b600080823b905060008111915050919050565b60008183613d7e91906157d6565b905092915050565b60008183613d949190615830565b905092915050565b828054613da89061597a565b90600052602060002090601f016020900481019282613dca5760008555613e11565b82601f10613de357803560ff1916838001178555613e11565b82800160010185558215613e11579182015b82811115613e10578235825591602001919060010190613df5565b5b509050613e1e9190613ea8565b5090565b828054613e2e9061597a565b90600052602060002090601f016020900481019282613e505760008555613e97565b82601f10613e6957805160ff1916838001178555613e97565b82800160010185558215613e97579182015b82811115613e96578251825591602001919060010190613e7b565b5b509050613ea49190613ea8565b5090565b5b80821115613ec1576000816000905550600101613ea9565b5090565b6000613ed8613ed384615657565b615626565b90508083825260208201905082856020860282011115613ef757600080fd5b60005b85811015613f275781613f0d8882614019565b845260208401935060208301925050600181019050613efa565b5050509392505050565b6000613f44613f3f84615683565b615626565b90508083825260208201905082856020860282011115613f6357600080fd5b60005b85811015613f935781613f79888261415f565b845260208401935060208301925050600181019050613f66565b5050509392505050565b6000613fb0613fab846156af565b615626565b905082815260208101848484011115613fc857600080fd5b613fd38482856158ef565b509392505050565b6000613fee613fe9846156df565b615626565b90508281526020810184848401111561400657600080fd5b6140118482856158ef565b509392505050565b60008135905061402881615b9f565b92915050565b600082601f83011261403f57600080fd5b813561404f848260208601613ec5565b91505092915050565b600082601f83011261406957600080fd5b8135614079848260208601613f31565b91505092915050565b60008135905061409181615bb6565b92915050565b6000813590506140a681615bcd565b92915050565b6000815190506140bb81615bcd565b92915050565b600082601f8301126140d257600080fd5b81356140e2848260208601613f9d565b91505092915050565b60008083601f8401126140fd57600080fd5b8235905067ffffffffffffffff81111561411657600080fd5b60208301915083600182028301111561412e57600080fd5b9250929050565b600082601f83011261414657600080fd5b8135614156848260208601613fdb565b91505092915050565b60008135905061416e81615be4565b92915050565b60006020828403121561418657600080fd5b600061419484828501614019565b91505092915050565b600080604083850312156141b057600080fd5b60006141be85828601614019565b92505060206141cf85828601614019565b9150509250929050565b600080600080600060a086880312156141f157600080fd5b60006141ff88828901614019565b955050602061421088828901614019565b945050604086013567ffffffffffffffff81111561422d57600080fd5b61423988828901614058565b935050606086013567ffffffffffffffff81111561425657600080fd5b61426288828901614058565b925050608086013567ffffffffffffffff81111561427f57600080fd5b61428b888289016140c1565b9150509295509295909350565b6000806000606084860312156142ad57600080fd5b60006142bb86828701614019565b93505060206142cc86828701614019565b92505060406142dd8682870161415f565b9150509250925092565b600080600080600060a086880312156142ff57600080fd5b600061430d88828901614019565b955050602061431e88828901614019565b945050604061432f8882890161415f565b93505060606143408882890161415f565b925050608086013567ffffffffffffffff81111561435d57600080fd5b614369888289016140c1565b9150509295509295909350565b6000806040838503121561438957600080fd5b600061439785828601614019565b92505060206143a885828601614082565b9150509250929050565b600080604083850312156143c557600080fd5b60006143d385828601614019565b92505060206143e48582860161415f565b9150509250929050565b6000806040838503121561440157600080fd5b600083013567ffffffffffffffff81111561441b57600080fd5b6144278582860161402e565b925050602083013567ffffffffffffffff81111561444457600080fd5b61445085828601614058565b9150509250929050565b60006020828403121561446c57600080fd5b600061447a84828501614082565b91505092915050565b60006020828403121561449557600080fd5b60006144a384828501614097565b91505092915050565b6000602082840312156144be57600080fd5b60006144cc848285016140ac565b91505092915050565b600080602083850312156144e857600080fd5b600083013567ffffffffffffffff81111561450257600080fd5b61450e858286016140eb565b92509250509250929050565b6000806040838503121561452d57600080fd5b600083013567ffffffffffffffff81111561454757600080fd5b61455385828601614135565b925050602061456485828601614019565b9150509250929050565b60006020828403121561458057600080fd5b600061458e8482850161415f565b91505092915050565b60006145a383836150c7565b60208301905092915050565b6145b881615864565b82525050565b60006145c98261571f565b6145d3818561574d565b93506145de8361570f565b8060005b8381101561460f5781516145f68882614597565b975061460183615740565b9250506001810190506145e2565b5085935050505092915050565b61462581615876565b82525050565b60006146368261572a565b614640818561575e565b93506146508185602086016158fe565b61465981615acb565b840191505092915050565b600061466f82615735565b614679818561576f565b93506146898185602086016158fe565b61469281615acb565b840191505092915050565b60006146aa60348361576f565b91507f455243313135353a207472616e7366657220746f206e6f6e204552433131353560008301527f526563656976657220696d706c656d656e7465720000000000000000000000006020830152604082019050919050565b600061471060238361576f565b91507f45524332303a207472616e7366657220746f20746865207a65726f206164647260008301527f65737300000000000000000000000000000000000000000000000000000000006020830152604082019050919050565b600061477660288361576f565b91507f455243313135353a204552433131353552656365697665722072656a6563746560008301527f6420746f6b656e730000000000000000000000000000000000000000000000006020830152604082019050919050565b60006147dc60228361576f565b91507f45524332303a206275726e20616d6f756e7420657863656564732062616c616e60008301527f63650000000000000000000000000000000000000000000000000000000000006020830152604082019050919050565b6000614842602b8361576f565b91507f455243313135353a2062616c616e636520717565727920666f7220746865207a60008301527f65726f20616464726573730000000000000000000000000000000000000000006020830152604082019050919050565b60006148a860268361576f565b91507f4f776e61626c653a206e6577206f776e657220697320746865207a65726f206160008301527f64647265737300000000000000000000000000000000000000000000000000006020830152604082019050919050565b600061490e60228361576f565b91507f45524332303a20617070726f766520746f20746865207a65726f20616464726560008301527f73730000000000000000000000000000000000000000000000000000000000006020830152604082019050919050565b6000614974603a8361576f565b91507f596f7520617265206e6f742061207665726966696361746f722c20736f20796f60008301527f752063616e277420776974686472617720616e79207374616b650000000000006020830152604082019050919050565b60006149da60298361576f565b91507f455243313135353a2063616c6c6572206973206e6f74206f776e6572206e6f7260008301527f20617070726f76656400000000000000000000000000000000000000000000006020830152604082019050919050565b6000614a4060268361576f565b91507f45524332303a207472616e7366657220616d6f756e742065786365656473206260008301527f616c616e636500000000000000000000000000000000000000000000000000006020830152604082019050919050565b6000614aa6601b8361576f565b91507f596f752061726520616c7265616479207665726966696361746f7200000000006000830152602082019050919050565b6000614ae660258361576f565b91507f455243313135353a207472616e7366657220746f20746865207a65726f20616460008301527f64726573730000000000000000000000000000000000000000000000000000006020830152604082019050919050565b6000614b4c60328361576f565b91507f455243313135353a207472616e736665722063616c6c6572206973206e6f742060008301527f6f776e6572206e6f7220617070726f76656400000000000000000000000000006020830152604082019050919050565b6000614bb260178361576f565b91507f596f7520617265206e6f74205665726966696361746f720000000000000000006000830152602082019050919050565b6000614bf2602a8361576f565b91507f455243313135353a20696e73756666696369656e742062616c616e636520666f60008301527f72207472616e73666572000000000000000000000000000000000000000000006020830152604082019050919050565b6000614c5860288361576f565b91507f45524332303a207472616e7366657220616d6f756e742065786365656473206160008301527f6c6c6f77616e63650000000000000000000000000000000000000000000000006020830152604082019050919050565b6000614cbe60208361576f565b91507f4f776e61626c653a2063616c6c6572206973206e6f7420746865206f776e65726000830152602082019050919050565b6000614cfe60218361576f565b91507f45524332303a206275726e2066726f6d20746865207a65726f2061646472657360008301527f73000000000000000000000000000000000000000000000000000000000000006020830152604082019050919050565b6000614d6460258361576f565b91507f45524332303a207472616e736665722066726f6d20746865207a65726f20616460008301527f64726573730000000000000000000000000000000000000000000000000000006020830152604082019050919050565b6000614dca60248361576f565b91507f45524332303a20617070726f76652066726f6d20746865207a65726f2061646460008301527f72657373000000000000000000000000000000000000000000000000000000006020830152604082019050919050565b6000614e3060298361576f565b91507f455243313135353a2073657474696e6720617070726f76616c2073746174757360008301527f20666f722073656c6600000000000000000000000000000000000000000000006020830152604082019050919050565b6000614e9660298361576f565b91507f455243313135353a206163636f756e747320616e6420696473206c656e67746860008301527f206d69736d6174636800000000000000000000000000000000000000000000006020830152604082019050919050565b6000614efc60318361576f565b91507f596f7520617265206e6f74207665726966696361746f722c20736f20796f752060008301527f646f6e27742068617665207374616b652e0000000000000000000000000000006020830152604082019050919050565b6000614f6260288361576f565b91507f455243313135353a2069647320616e6420616d6f756e7473206c656e6774682060008301527f6d69736d617463680000000000000000000000000000000000000000000000006020830152604082019050919050565b6000614fc860218361576f565b91507f455243313135353a206d696e7420746f20746865207a65726f2061646472657360008301527f73000000000000000000000000000000000000000000000000000000000000006020830152604082019050919050565b600061502e60258361576f565b91507f45524332303a2064656372656173656420616c6c6f77616e63652062656c6f7760008301527f207a65726f0000000000000000000000000000000000000000000000000000006020830152604082019050919050565b6000615094601f8361576f565b91507f45524332303a206d696e7420746f20746865207a65726f2061646472657373006000830152602082019050919050565b6150d0816158d8565b82525050565b6150df816158d8565b82525050565b6150ee816158e2565b82525050565b600060208201905061510960008301846145af565b92915050565b600060a08201905061512460008301886145af565b61513160208301876145af565b818103604083015261514381866145be565b9050818103606083015261515781856145be565b9050818103608083015261516b818461462b565b90509695505050505050565b600060a08201905061518c60008301886145af565b61519960208301876145af565b6151a660408301866150d6565b6151b360608301856150d6565b81810360808301526151c5818461462b565b90509695505050505050565b600060208201905081810360008301526151eb81846145be565b905092915050565b6000604082019050818103600083015261520d81856145be565b9050818103602083015261522181846145be565b90509392505050565b600060208201905061523f600083018461461c565b92915050565b6000602082019050818103600083015261525f8184614664565b905092915050565b600060208201905081810360008301526152808161469d565b9050919050565b600060208201905081810360008301526152a081614703565b9050919050565b600060208201905081810360008301526152c081614769565b9050919050565b600060208201905081810360008301526152e0816147cf565b9050919050565b6000602082019050818103600083015261530081614835565b9050919050565b600060208201905081810360008301526153208161489b565b9050919050565b6000602082019050818103600083015261534081614901565b9050919050565b6000602082019050818103600083015261536081614967565b9050919050565b60006020820190508181036000830152615380816149cd565b9050919050565b600060208201905081810360008301526153a081614a33565b9050919050565b600060208201905081810360008301526153c081614a99565b9050919050565b600060208201905081810360008301526153e081614ad9565b9050919050565b6000602082019050818103600083015261540081614b3f565b9050919050565b6000602082019050818103600083015261542081614ba5565b9050919050565b6000602082019050818103600083015261544081614be5565b9050919050565b6000602082019050818103600083015261546081614c4b565b9050919050565b6000602082019050818103600083015261548081614cb1565b9050919050565b600060208201905081810360008301526154a081614cf1565b9050919050565b600060208201905081810360008301526154c081614d57565b9050919050565b600060208201905081810360008301526154e081614dbd565b9050919050565b6000602082019050818103600083015261550081614e23565b9050919050565b6000602082019050818103600083015261552081614e89565b9050919050565b6000602082019050818103600083015261554081614eef565b9050919050565b6000602082019050818103600083015261556081614f55565b9050919050565b6000602082019050818103600083015261558081614fbb565b9050919050565b600060208201905081810360008301526155a081615021565b9050919050565b600060208201905081810360008301526155c081615087565b9050919050565b60006020820190506155dc60008301846150d6565b92915050565b60006040820190506155f760008301856150d6565b61560460208301846150d6565b9392505050565b600060208201905061562060008301846150e5565b92915050565b6000604051905081810181811067ffffffffffffffff8211171561564d5761564c615a9c565b5b8060405250919050565b600067ffffffffffffffff82111561567257615671615a9c565b5b602082029050602081019050919050565b600067ffffffffffffffff82111561569e5761569d615a9c565b5b602082029050602081019050919050565b600067ffffffffffffffff8211156156ca576156c9615a9c565b5b601f19601f8301169050602081019050919050565b600067ffffffffffffffff8211156156fa576156f9615a9c565b5b601f19601f8301169050602081019050919050565b6000819050602082019050919050565b600081519050919050565b600081519050919050565b600081519050919050565b6000602082019050919050565b600082825260208201905092915050565b600082825260208201905092915050565b600082825260208201905092915050565b600061578b826158d8565b9150615796836158d8565b9250827fffffffffffffffffffffffffffffffffffffffffffffffffffffffffffffffff038211156157cb576157ca615a3e565b5b828201905092915050565b60006157e1826158d8565b91506157ec836158d8565b9250817fffffffffffffffffffffffffffffffffffffffffffffffffffffffffffffffff048311821515161561582557615824615a3e565b5b828202905092915050565b600061583b826158d8565b9150615846836158d8565b92508282101561585957615858615a3e565b5b828203905092915050565b600061586f826158b8565b9050919050565b60008115159050919050565b60007fffffffff0000000000000000000000000000000000000000000000000000000082169050919050565b6000819050919050565b600073ffffffffffffffffffffffffffffffffffffffff82169050919050565b6000819050919050565b600060ff82169050919050565b82818337600083830152505050565b60005b8381101561591c578082015181840152602081019050615901565b8381111561592b576000848401525b50505050565b600061593c826158ae565b91507f800000000000000000000000000000000000000000000000000000000000000082141561596f5761596e615a3e565b5b600182039050919050565b6000600282049050600182168061599257607f821691505b602082108114156159a6576159a5615a6d565b5b50919050565b60006159b7826158ae565b91507f7fffffffffffffffffffffffffffffffffffffffffffffffffffffffffffffff8214156159ea576159e9615a3e565b5b600182019050919050565b6000615a00826158d8565b91507fffffffffffffffffffffffffffffffffffffffffffffffffffffffffffffffff821415615a3357615a32615a3e565b5b600182019050919050565b7f4e487b7100000000000000000000000000000000000000000000000000000000600052601160045260246000fd5b7f4e487b7100000000000000000000000000000000000000000000000000000000600052602260045260246000fd5b7f4e487b7100000000000000000000000000000000000000000000000000000000600052604160045260246000fd5b6000601f19601f8301169050919050565b60008160e01c9050919050565b600060443d1015615af957615b9c565b60046000803e615b0a600051615adc565b6308c379a08114615b1b5750615b9c565b60405160043d036004823e80513d602482011167ffffffffffffffff82111715615b4757505050615b9c565b808201805167ffffffffffffffff811115615b66575050505050615b9c565b8060208301013d8501811115615b8157505050505050615b9c565b615b8a82615acb565b60208401016040528296505050505050505b90565b615ba881615864565b8114615bb357600080fd5b50565b615bbf81615876565b8114615bca57600080fd5b50565b615bd681615882565b8114615be157600080fd5b50565b615bed816158d8565b8114615bf857600080fd5b5056fea26469706673582212202cf83832346f92151ddad52921777563e2bc9cc44bd2333ec401c4d93b04659464736f6c63430008000033",
  "immutableReferences": {},
  "source": "pragma solidity ^0.8.0;\r\n\r\n// SPDX-License-Identifier: MIT\r\n\r\n\r\nimport \"./Trashtag.sol\";\r\n\r\n\r\n\r\ncontract TrashtagDAPP is  Trashtag {\r\n\r\n    using SafeMath for uint;\r\n\r\n\r\n\r\n    uint nbOfTrashtagValidated;\r\n\r\n    address[] WaitingList;\r\n    string[] WaintingURI;\r\n\r\n\r\n    mapping(address =>uint) TrashtagValidatedByVerificator;\r\n    mapping(address =>uint) TrashtagDoneByTTW;\r\n    mapping(address=>mapping(uint => int)) Judgment;\r\n\r\n\r\n\r\n    modifier IsVerificator (){\r\n        (bool isHe,) = Jobcoin.isVerificator(msg.sender);\r\n        require(isHe == true, \"You are not Verificator\");\r\n        _;\r\n    }\r\n\r\n\r\n\r\n\r\n\r\n\r\n    /*\r\n    * Create an Trashtag token and reward 100 JBC without verification\r\n    * Test function to test YourTrahstags without waiting.\r\n    *Testnet only\r\n    */\r\n    function NFTCreationForTest(string memory _uri, address _to)public{\r\n        Trashtag.rewardTrashtagWarrior(_uri, _to);\r\n        Jobcoin.rewardCoinTrashtagWarrior(_to);\r\n\r\n    }\r\n\r\n\r\n    /*\r\n    * Create an NFT of the trashtag challenge and send it to the Trashtag warrior\r\n    * Reward the Trashtag warrior with 100 Jobcoin\r\n    */\r\n    function TrashtagTagTokenCreation(string memory _uri, address _to)internal{\r\n        Trashtag.rewardTrashtagWarrior(_uri, _to);\r\n        Jobcoin.rewardCoinTrashtagWarrior(_to);\r\n    }\r\n\r\n\r\n    /*\r\n * Store metadata's uri\r\n */\r\n    function NeedToBeValidate(string calldata _uri) public{\r\n        WaitingList.push(msg.sender);\r\n        WaintingURI.push(_uri);\r\n    }\r\n\r\n\r\n    /*\r\n    * Take the first address on the wait list and return metadatas IPFS address of the potential trahstag challenge.\r\n    * And trahstag warrior adaddress\r\n    */\r\n    function WaitingTobeValidate() public view IsVerificator() returns(string memory) {\r\n        uint alreadyValidated = TrashtagValidatedByVerificator[msg.sender];\r\n        uint _waitingNb = WaitingList.length;\r\n        if(alreadyValidated < _waitingNb){\r\n            //Cannot return _uri + _TTWarrior because solidity do not manage\r\n            return WaintingURI[alreadyValidated];\r\n        }\r\n        else{\r\n            //No more trashtag waiting\r\n            return \"0\";\r\n        }\r\n    }\r\n\r\n\r\n    /*\r\n    *return the last trashtag warrior address register ont the waitingList\r\n    */\r\n\r\n    function getWaitingList() public view IsVerificator() returns(address){\r\n        uint alreadyValidated = TrashtagValidatedByVerificator[msg.sender];\r\n        uint _waitingNb = WaitingList.length;\r\n\r\n        if(alreadyValidated < _waitingNb){\r\n            address _TTWarrior = WaitingList[alreadyValidated];\r\n            return _TTWarrior;\r\n        }\r\n        else{\r\n            //No more trashtag waiting\r\n            return address(0);\r\n        }\r\n\r\n    }\r\n\r\n\r\n\r\n    function Verify(bool _judgment) public IsVerificator() returns(bool){\r\n\r\n        uint _TTValidated = TrashtagValidatedByVerificator[msg.sender];\r\n\r\n        if(_TTValidated < WaitingList.length){\r\n\r\n            address _TTWarrior = WaitingList[_TTValidated];\r\n            TrashtagValidatedByVerificator[msg.sender]++;\r\n            uint amountNFT = Trashtag.getAmountNFT(_TTWarrior);\r\n            amountNFT ++;\r\n\r\n            //If positive judgement\r\n            if(_judgment){\r\n\r\n\r\n                Judgment[_TTWarrior][amountNFT] ++;\r\n\r\n                int judgement = Judgment[_TTWarrior][amountNFT];\r\n\r\n                if(judgement == 5){\r\n\r\n                    string memory _uri = WaintingURI[_TTValidated];\r\n                    TrashtagTagTokenCreation(_uri, _TTWarrior);\r\n                    Jobcoin.verificatorReward(msg.sender);\r\n                }\r\n\r\n                if(judgement == 8|| judgement == 14) {\r\n                    Jobcoin.verificatorReward(msg.sender);\r\n                }\r\n\r\n                else if(judgement<-10) {\r\n                    Jobcoin.verificatorPenality(msg.sender);\r\n                }\r\n            }\r\n\r\n            if(!_judgment){\r\n\r\n\r\n                Judgment[_TTWarrior][amountNFT] --;\r\n                int judgement = Judgment[_TTWarrior][amountNFT];\r\n\r\n                if(judgement >5){\r\n                    Jobcoin.verificatorPenality(msg.sender);\r\n                }\r\n                else if(judgement <20){\r\n                    Jobcoin.verificatorReward(msg.sender);\r\n                }\r\n\r\n            }\r\n            return true;\r\n        }\r\n        else{\r\n            //No more trashtag to validate\r\n            return false;\r\n        }\r\n    }\r\n\r\n\r\n\r\n\r\n\r\n}",
  "sourcePath": "C:/Users/FourbeurFourmi/Desktop/Projet Eco Token/V1 React-Typescript/trash-tag-dapp/contracts/TrashtagDAPP.sol",
  "compiler": {
    "name": "solc",
    "version": "0.8.0+commit.c7dfd78e.Emscripten.clang"
  },
  "schemaVersion": "3.3.4",
  "updatedAt": "2021-07-26T12:36:21.019Z",
  "networkType": "ethereum",
  "devdoc": {
    "kind": "dev",
    "methods": {
      "allowance(address,address)": {
        "details": "See {IERC20-allowance}."
      },
      "approve(address,uint256)": {
        "details": "See {IERC20-approve}. Requirements: - `spender` cannot be the zero address."
      },
      "balanceOf(address)": {
        "details": "See {IERC20-balanceOf}."
      },
      "balanceOf(address,uint256)": {
        "details": "See {IERC1155-balanceOf}. Requirements: - `account` cannot be the zero address."
      },
      "balanceOfBatch(address[],uint256[])": {
        "details": "See {IERC1155-balanceOfBatch}. Requirements: - `accounts` and `ids` must have the same length."
      },
      "decimals()": {
        "details": "Returns the number of decimals used to get its user representation. For example, if `decimals` equals `2`, a balance of `505` tokens should be displayed to a user as `5,05` (`505 / 10 ** 2`). Tokens usually opt for a value of 18, imitating the relationship between Ether and Wei. This is the value {ERC20} uses, unless this function is overridden; NOTE: This information is only used for _display_ purposes: it in no way affects any of the arithmetic of the contract, including {IERC20-balanceOf} and {IERC20-transfer}."
      },
      "decreaseAllowance(address,uint256)": {
        "details": "Atomically decreases the allowance granted to `spender` by the caller. This is an alternative to {approve} that can be used as a mitigation for problems described in {IERC20-approve}. Emits an {Approval} event indicating the updated allowance. Requirements: - `spender` cannot be the zero address. - `spender` must have allowance for the caller of at least `subtractedValue`."
      },
      "increaseAllowance(address,uint256)": {
        "details": "Atomically increases the allowance granted to `spender` by the caller. This is an alternative to {approve} that can be used as a mitigation for problems described in {IERC20-approve}. Emits an {Approval} event indicating the updated allowance. Requirements: - `spender` cannot be the zero address."
      },
      "isApprovedForAll(address,address)": {
        "details": "See {IERC1155-isApprovedForAll}."
      },
      "name()": {
        "details": "Returns the name of the token."
      },
      "owner()": {
        "details": "Returns the address of the current owner."
      },
      "renounceOwnership()": {
        "details": "Leaves the contract without owner. It will not be possible to call `onlyOwner` functions anymore. Can only be called by the current owner. NOTE: Renouncing ownership will leave the contract without an owner, thereby removing any functionality that is only available to the owner."
      },
      "safeBatchTransferFrom(address,address,uint256[],uint256[],bytes)": {
        "details": "See {IERC1155-safeBatchTransferFrom}."
      },
      "safeTransferFrom(address,address,uint256,uint256,bytes)": {
        "details": "See {IERC1155-safeTransferFrom}."
      },
      "setApprovalForAll(address,bool)": {
        "details": "See {IERC1155-setApprovalForAll}."
      },
      "supportsInterface(bytes4)": {
        "details": "See {IERC165-supportsInterface}."
      },
      "symbol()": {
        "details": "Returns the symbol of the token, usually a shorter version of the name."
      },
      "totalStakes()": {
        "returns": {
          "_0": "uint256 The aggregated stakes from all stakeholders."
        }
      },
      "totalSupply()": {
        "details": "See {IERC20-totalSupply}."
      },
      "transfer(address,uint256)": {
        "details": "See {IERC20-transfer}. Requirements: - `recipient` cannot be the zero address. - the caller must have a balance of at least `amount`."
      },
      "transferFrom(address,address,uint256)": {
        "details": "See {IERC20-transferFrom}. Emits an {Approval} event indicating the updated allowance. This is not required by the EIP. See the note at the beginning of {ERC20}. Requirements: - `sender` and `recipient` cannot be the zero address. - `sender` must have a balance of at least `amount`. - the caller must have allowance for ``sender``'s tokens of at least `amount`."
      },
      "transferOwnership(address)": {
        "details": "Transfers ownership of the contract to a new account (`newOwner`). Can only be called by the current owner."
      },
      "uri(uint256)": {
        "details": "See {IERC1155MetadataURI-uri}. This implementation returns the same URI for *all* token types. It relies on the token type ID substitution mechanism https://eips.ethereum.org/EIPS/eip-1155#metadata[defined in the EIP]. Clients calling this function must replace the `\\{id\\}` substring with the actual token type ID."
      }
    },
    "version": 1
  },
  "userdoc": {
    "kind": "user",
    "methods": {
      "totalStakes()": {
        "notice": "A method to the aggregated stakes from all stakeholders."
      }
    },
    "version": 1
  }
}